:020000040800F2
:10000000500D002069020008610E00086D0B000809
:100010005D0E00082D080008991D00080000000072
:100020000000000000000000000000007D13000838
:10003000F9090008000000003B0F000895140008B3
:10004000830200088302000883020008830200087C
:10005000830200088302000883020008830200086C
:10006000830200088302000883020008830200085C
:10007000830200088302000883020008830200084C
:10008000830200088302000883020008830200083C
:10009000830200088302000883020008830200082C
:1000A000830200088302000883020008830200081C
:1000B000011500088302000883020008830200087B
:1000C00083020008830200088302000883020008FC
:1000D000830200088302000883020008611C0008F4
:1000E00083020008830200088302000883020008DC
:1000F00083020008830200088302000883020008CC
:100100008302000883020008011800088302000827
:1001100083020008830200088302000883020008AB
:10012000830200088302000883020008830200089B
:10013000830200088302000883020008830200088B
:10014000830200088302000883020008830200087B
:10015000830200088302000883020008830200086B
:10016000830200088302000883020008830200085B
:10017000830200088302000883020008830200084B
:10018000830200088302000800F002F800F05CF827
:100190000AA090E8000C82448344AAF10107DA45E2
:1001A00001D100F051F8AFF2090EBAE80F0013F0D8
:1001B000010F18BFFB1A43F001031847B43A0000BF
:1001C000D43A00000A444FF0000C10F8013B13F041
:1001D000070408BF10F8014B1D1108BF10F8015BA0
:1001E000641E05D010F8016B641E01F8016BF9D193
:1001F00013F0080F1EBF10F8014BAD1C0C1B09D1EA
:100200006D1E58BF01F801CBFAD505E014F8016B5B
:1002100001F8016B6D1EF9D59142D6D370470000ED
:100220000023002400250026103A28BF78C1FBD8FF
:10023000520728BF30C148BF0B6070471FB503F09D
:1002400011FD1FBD10B510BD00F033F81146FFF7CA
:10025000F5FF02F067FB00F051F803B4FFF7F2FF7F
:1002600003BC01F09BFD0000094880470948004796
:10027000FEE7FEE7FEE7FEE7FEE7FEE7FEE7FEE756
:10028000FEE7FEE704480549054A064B70470000B3
:10029000991400088901000850070020500D002023
:1002A0005009002050090020704770477047704780
:1002B0007047754600F02CF8AE4605006946534677
:1002C00020F00700854618B020B5FFF7DBFFBDE83A
:1002D00020404FF000064FF000074FF000084FF0AD
:1002E000000B21F00701AC46ACE8C009ACE8C0093E
:1002F000ACE8C009ACE8C0098D46704710B50446AB
:10030000AFF300802046BDE81040FFF7A6BF000015
:1003100000487047EC06002021B1826842F00102DB
:10032000826003E0826822F0010282607047000070
:100330000021084A1168084A1140D0E900231A43F5
:1003400083681A43C3681A431143044AC2F804136A
:100350007047000004230140E030FCFF0020014012
:1003600021B1826842F48072826003E0826822F4E4
:1003700080728260704721B1826842F400728260AC
:1003800003E0826822F400728260704710B5012198
:10039000080200F003FE00214FF4807000F0FEFD23
:1003A00010BD000030B50246002000235068104CFC
:1003B00020400D790C6844EA052420435060906881
:1003C0000C4C2040D1E903542C438D682C434D79CB
:1003D00044EA450420439060D06A20F470000C7D0C
:1003E000641EE4B2234340EA0350D06230BD0000F3
:1003F000FFFEFFFCFDF7FFC0F0B504460D460020F0
:100400000021092D11DDE068A5F10A0606EB46077B
:10041000072606FA07F18843A5F10A0606EB460609
:1004200003FA06F10843E0600CE0206905EB45079C
:10043000072606FA07F1884305EB450603FA06F19D
:1004400008432061072A0FDA606B561E06EB860709
:100450001F2606FA07F18843561E06EB860605FAA4
:1004600006F10843606322E00D2A0FDA206BD61FE5
:1004700006EB86071F2606FA07F18843D61F06EB10
:10048000860605FA06F10843206310E0E06AA2F14F
:100490000D0606EB86071F2606FA07F18843A2F130
:1004A0000D0606EB860605FA06F10843E062F0BD8C
:1004B000816841F080418160704700002DE9F04182
:1004C000012400260025012753E1002000F004FC50
:1004D00006460EB134463746012F26D101F022FDE3
:1004E000A6A20121002001F0B1FEA9A20121022053
:1004F00001F0ACFEA7A20121042001F0A7FEA6A2F4
:100500000121062001F0A2FEA4A24221022001F056
:100510009DFEA3A24221042001F098FEA1A2422147
:10052000062001F093FE002750E0022F26D101F0B3
:10053000F9FC92A20121002001F088FE9AA201217B
:10054000022001F083FE99A20121042001F07EFE29
:1005500097A20121062001F079FE96A242210220F5
:1005600001F074FE95A24221042001F06FFE95A2D5
:100570004221062001F06AFE002727E0032F25D143
:1005800001F0D0FC7DA20121002001F05FFE8FA2CE
:100590000121022001F05AFE8EA20121042001F067
:1005A00055FE8EA20121062001F050FE8DA24221AF
:1005B000022001F04BFE8DA24721042001F046FEEF
:1005C0008BA24721062001F041FE0027681CC5B21E
:1005D000642D00DB0025052095FBF0F100FB115098
:1005E00098B9032C11D1012001F034FD8046424618
:1005F0006021042001F0E6FE022001F02BFD804680
:1006000042466021062001F0DDFE002D71D1012C53
:1006100036D1002001F0C6FB804642461A21022056
:1006200001F0E6FE012001F0BDFB804642461A21A2
:10063000042001F0DDFE022001F0B4FB80464246BA
:100640001A21062001F0D4FE032001F0ABFB804606
:1006500042466021022001F0CBFE042001F0A2FB03
:10066000804642466021042001F0C2FE052001F0D0
:1006700099FB804642466021062001F0B9FE75E0F4
:10068000022C37D1062001F08DFB804642461A210C
:10069000022001F0ADFE072001F084FB80464246B7
:1006A0001A21042001F0A4FE082001F07BFB804603
:1006B00042461A21062001F09BFE092001F072FB40
:1006C000804642466021022001F092FE0A2001F09D
:1006D00069FB804642466021042001F089FE0B2020
:1006E00001F060FB804642466021062001F080FE5A
:1006F0003CE038E0032C39D10C2001F053FB80465C
:1007000042461F21022001F073FE0D2001F04AFB3A
:10071000804642461F21042001F06AFE0E2001F0AF
:1007200041FB804642461F21062001F061FE0F205A
:1007300001F038FB804642466021022001F058FE5D
:10074000012001F087FC804642466021042001F030
:1007500039FE022001F07EFC8046424660210620E0
:1007600001F030FE02E0042C00D103E0052001F08E
:100770002FFCAAE600BFBDE8F0810000202D414417
:1007800020446574656374696F6E2D20000000005D
:1007900041303D0041313D0041323D0041333D009B
:1007A00041343D0041353D0041363D0041373D007B
:1007B00041383D004139203D000000004131303DCD
:1007C000000000004131313D000000004131323D68
:1007D000000000004131333D000000004131343D54
:1007E000000000004131353D0000000044313D0073
:1007F00044323D001CB54FF40060009001208DF89C
:10080000040000208DF8060003208DF8050001206B
:100810008DF807006946044800F01CF94FF40061A8
:10082000014800F08DF91CBD000C024000BFFEE73E
:1008300021B1026842F00102026003E0026822F086
:100840000102026070470000016821F001010160AF
:100850000021016041608160C1600161212141612D
:100860004A49884204D13D21484A103A91608CE0BF
:1008700046491831884205D14FF47461434A103A11
:10088000916082E041493031884205D14FF47411C2
:100890003E4A103A916078E03C494831884205D19F
:1008A0004FF07461394A103A91606EE03749603117
:1008B000884204D13649354A103AD16065E033495F
:1008C0007831884204D13349304A103AD1605CE033
:1008D0002E499031884204D12F492C4A103AD160D8
:1008E00053E02A49A831884205D14FF03D51274AAB
:1008F000103AD16049E02949884204D13D21274A74
:10090000083A116041E025491831884205D14FF479
:100910007461224A083A116037E020493031884238
:1009200005D14FF474111D4A083A11602DE01B499E
:100930004831884205D14FF07461184A083A116075
:1009400023E016496031884204D11149134A121F2D
:1009500011601AE011497831884204D10D490F4ADB
:10096000121F116011E00D499031884204D10A49EB
:100970000A4A121F116008E00849A831884204D1D0
:100980004FF03D51054A121F116070471060024040
:100990003D000020400F002000003D201064024078
:1009A00010B500220268134B1A40CC680B68234331
:1009B0004C6923438C692343CC6923430C6A23434A
:1009C0004C6A23438C6A23434C6B23438C6B234335
:1009D0001A430260426922F00702D1E90B34234333
:1009E0001A4342610B6943604B6883608B68C36044
:1009F00010BD00003F801CF0704700001CB50220B5
:100A0000009001208DF804008DF8060003208DF879
:100A1000050001208DF807006946024800F01AF829
:100A20001CBD0000001002401CB5022000900020F8
:100A30008DF8040002208DF8070003208DF80500D2
:100A400001208DF807006946014800F003F81CBD3D
:100A500000100240F0B50A4600210023002400BF28
:100A60003DE0012505FA01F3156805EA03049C42FF
:100A700034D105684F000326BE40B54305601579A3
:100A80004E00B5400668354305601579012D02D04A
:100A90001579022D16D185684F000326BE40B54357
:100AA000856055794E00B540866835438560456858
:100AB00001268E40B5434560456896798E40B6B2B2
:100AC00035434560C5684F000326BE40B543C56049
:100AD000D5794E00B540C6683543C560491C10291C
:100AE000BFD3F0BDF0B5002300244D07ED0E02FA90
:100AF00005F3CE1000F1200555F826504E07F70EED
:100B00000F26BE40B543CF1000F1200646F827500F
:100B1000CE1000F1200555F8265045EA0304CE100A
:100B200000F1200545F82640F0BD0246002013697B
:100B30000B400BB1012000E000207047418370475B
:100B40000183704770B504460D46064804600648A8
:100B500005602146022001F095FF2946032001F09F
:100B600091FF70BD040600200806002000BFFEE7CC
:100B700010B54FF4C87001F0FFF900F0B9F9042185
:100B80003048FFF7DBFF01212E48FFF7D9FFAE20E9
:100B900002F00AFC202002F007FC102002F004FC06
:100BA000B02002F001FCC82002F0FEFB002002F0A1
:100BB000FBFB102002F0F8FB402002F0F5FB812047
:100BC00002F0F2FBFF2002F0EFFBA12002F0ECFBB1
:100BD000A62002F0E9FBA82002F0E6FB3F2002F08D
:100BE000E3FBA42002F0E0FBD32002F0DDFB0020B9
:100BF00002F0DAFBD52002F0D7FBF02002F0D4FBA4
:100C0000D92002F0D1FB222002F0CEFBDA2002F044
:100C1000CBFB122002F0C8FBDB2002F0C5FB20203A
:100C200002F0C2FB8D2002F0BFFB142002F0BCFBDF
:100C3000AF2002F0B9FB04210248FFF781FF01F069
:100C400071F910BD001002401CB54020009000203A
:100C50008DF8040003208DF8050001208DF80700B1
:100C600069461948FFF7F6FE4FF400700090002027
:100C70008DF8040003208DF8050001208DF8070091
:100C800069461248FFF7E6FE8020009000208DF8AC
:100C9000040003208DF8050001208DF80700694647
:100CA0000B48FFF7D7FE4FF40050009000208DF85E
:100CB000040003208DF8050001208DF80700694627
:100CC0000448FFF7C7FE1CBD0010024000040240AC
:100CD000000C02400008024010B5044614B1012087
:100CE0001F4908701E48007828B31E48006840B1AC
:100CF0001D48006828B11D48006810B11C480068F4
:100D0000C8B90A2001F064F9002015490870154897
:100D1000006808B9032010BD1348006808B9042012
:100D2000F9E71248006808B90120F4E710480068A4
:100D300098B90220EFE70B48006801280DD10A4856
:100D40000068012809D109480068012805D1084830
:100D50000068012801D1024908700020DBE700008B
:100D600000000020248240421C824142180242427C
:100D7000340241421CB54FF48050009001208DF8A0
:100D8000040000208DF8060003208DF805000120E6
:100D90008DF8070069461048FFF75CFE4FF40061CC
:100DA0000D48FFF7CDFE4FF40060009001208DF854
:100DB000040000208DF8060003208DF805000120B6
:100DC0008DF8070069460548FFF744FE4FF40061BF
:100DD0000248FFF7B5FE1CBD0000024000100240B3
:100DE00010B54FF4A06000F079F80121084600F03A
:100DF000A5F80121022000F0A1F80121042000F053
:100E00009DF80121082000F099F80121102000F040
:100E100095F8A82001F0BEF80F49012002F092FBDE
:100E2000FFF7E8FCFFF710FFFFF7A2FE00F076F8EF
:100E3000532140F2E73000F09DFB02F0B3F953215B
:100E400040F2E73000F0FEFC02F0BCF9FFF792FF41
:100E500000F028F910BD000040420F0000BFFEE77F
:100E60007047000070B5002100230F22C4781CB326
:100E7000174C246804F4E064C4F5E064C4F307216B
:100E8000C1F10404E3B20A4144789C40E1B28478A1
:100E9000144021430C07210E0E4C0578615504784F
:100EA00004F01F050124AC4005786D11AD0005F17B
:100EB000E025C5F8004109E0047804F01F0501248D
:100EC000AC40054D0678761145F8264070BD00000F
:100ED0000CED00E000E400E080E100E002490143A5
:100EE000024A1160704700000000FA050CED00E0B6
:100EF0001CB53F20009001208DF8040000208DF8E3
:100F0000060003208DF8050001208DF807006946D2
:100F10000148FFF79FFD1CBD0010024010B50321E2
:100F200040F2FB3000F050FB032140F2FB3000F0B8
:100F3000D9FB012001F094FB10BD704729B1064A8E
:100F400012680243044B1A6004E0034A12688243A9
:100F5000014B1A60704700003038024029B1064A40
:100F600012680243044B1A6004E0034A1268824389
:100F7000014B1A60704700004038024029B1064A10
:100F800012680243044B1A6004E0034A1268824369
:100F9000014B1A60704700004438024029B1064AEC
:100FA00012680243044B1A6004E0034A1268824349
:100FB000014B1A607047000024380240F0B5002150
:100FC00000220024022500260223324F3F6807F04A
:100FD0000C0121B1042905D0082937D105E02E4F95
:100FE000076036E02D4F076033E02A4F3F1F3F6810
:100FF000C7F38056274F3F1F3F6807F03F036EB18E
:10100000264FB7FBF3F7DFF88CC0ACF1040CDCF82B
:1010100000C0CCF3881C07FB0CF40CE01E4FB7FBA0
:10102000F3F7DFF870C0ACF1040CDCF800C0CCF3CF
:10103000881C07FB0CF4174F3F1F3F68C7F301479D
:101040007F1C7D00B4FBF5F7076002E0124F0760DC
:1010500000BF00BF0F4F3F6807F0F0010909104FB4
:101060007A5C0768D74047600A4F3F6807F4E05151
:10107000890A0B4F7A5C4768D7408760054F3F6805
:1010800007F46041490B064F7A5C4768D740C76058
:10109000F0BD0000083802400024F40000127A007D
:1010A0007C06002000B59BB001218805FFF746FFB4
:1010B0003F20199003208DF8680000208DF86B0008
:1010C00019A9A648FFF7C6FCFF20199003208DF848
:1010D000680000208DF86B0019A9A148FFF7BAFC41
:1010E000032019908DF8680000208DF86B0019A975
:1010F0009C48FFF7AFFC4FF28070199000208DF8EC
:10110000680003208DF8690001208DF86B0019A993
:101110009548FFF79FFC4FF60440199000208DF88A
:10112000680003208DF8690001208DF86B0019A973
:101130008C48FFF78FFC40F21F70199000208DF84B
:10114000680003208DF8690001208DF86B0019A953
:101150008648FFF77FFC4FF40040199000208DF87F
:10116000680003208DF8690001208DF86B0019A933
:101170007B48FFF76FFC4FF48050199000208DF8EA
:10118000680003208DF8690001208DF86B0019A913
:101190007248FFF75FFC01210802FFF7FFFE002104
:1011A0004FF48070FFF7FAFE7148FFF74DFB002007
:1011B0000090704801907048029000200390102029
:1011C0000490002005904FF4806006904000079046
:1011D000800008904011099040020A9000200B9076
:1011E00001200C9000200D900E9069466048FFF79A
:1011F000D7FB01215E48FFF71BFB01210802FFF727
:10120000BDFE01210802FFF7C9FE00214FF48070E6
:10121000FFF7C4FEFFF7BAF80020159017904FF4BF
:10122000803016900020189015A8FFF781F8002054
:101230000F9001208DF840008DF8410000201190A2
:10124000139010208DF850000FA94A484C38FFF732
:10125000A9F803230122002146484C38FFF7CCF8B7
:1012600003230222012143484C38FFF7C5F803232A
:101270001A4602213F484C38FFF7BEF803230422E8
:1012800019463C484C38FFF7B7F8032305220421E0
:1012900038484C38FFF7B0F80323062205213548BB
:1012A0004C38FFF7A9F803230722062131484C38B0
:1012B000FFF7A2F80323082207212E484C38FFF736
:1012C0009BF80323092208212A484C38FFF794F899
:1012D00003230A22092127484C38FFF78DF80323FE
:1012E0000B220A2123484C38FFF786F803230C22EF
:1012F0000B2120484C38FFF77FF803230D220C21E7
:101300001C484C38FFF778F803230E220D211948AA
:101310004C38FFF771F803230F220E2115484C3883
:10132000FFF76AF8032310220F2112484C38FFF709
:1013300063F801210F484C38FFF71DF801210D48D3
:101340004C38FFF70DF801210A484C38FEF7E4FF4E
:1013500008484C38FFF7ACF81BB000BD000802404D
:10136000000002400004024000100240000C024055
:10137000106402404C2001408C06002070470000A1
:101380000CB50020019000903448006840F4803093
:101390003249086000BF3148006800F40030009016
:1013A0000198401C0190009818B90198B0F5A04F21
:1013B000F1D12A48006800F4003010B101200090FB
:1013C00001E0002000900098012846D123484030D9
:1013D000006840F080502149403108602048006892
:1013E00040F440401E4908601C48083000681B4912
:1013F000083108600846006840F40040086008466C
:10140000006840F4A05008601648091F0860081FD3
:10141000006840F08070091F086000BF0F48006836
:1014200000F000700028F9D040F205700E49086005
:101430000A480830006820F00300084908310860B5
:101440000846006840F00200086000BF034808300A
:10145000006800F00C000828F8D10CBD00380240EC
:101460000070004008544007003C0240042808D1A6
:101470004FF0E021096941F004014FF0E0221161D1
:1014800007E04FF0E021096921F004014FF0E0226C
:10149000116170477047000010B51548006840F4AE
:1014A0007000134908601348006840F001001149BA
:1014B000086000200F49083108600E4800680E4996
:1014C00008400C4908600D48091D0860081F0068A5
:1014D00020F48020091F0860002006490C310860B4
:1014E000FFF74EFF4FF0006001498039086010BDE2
:1014F00088ED00E000380240FFFFF6FE10300024C7
:1015000010B50121880700F0E2F9012823D1144821
:101510000078012810D113480088401C1149088028
:1015200008460088C82807DB01200F490860002012
:101530000B4908700B4908800C480088401C0B4977
:10154000088008460088B0F57A7F04D108480088F2
:10155000401C074908800121880700F0A9F910BD47
:101560000006002002060020AC824142F80500205F
:10157000FA0500207FB505460C4601210846FFF715
:10158000EDFC0295ADF804400020ADF80600ADF882
:101590000C0001A94FF0804000F008FB0122114629
:1015A000900700F0A5F91C208DF8000001208DF8AF
:1015B000010003208DF8020001208DF80300684629
:1015C000FFF750FC7FBD000030B58BB004460D46E0
:1015D00001210220FFF7C2FC022206213F48FFF74B
:1015E00081FA022207213D48FFF77CFA02220821F6
:1015F0003A48FFF777FA022209213848FFF772FAD2
:101600004FF47070099002208DF8280003208DF8A7
:10161000290000208DF82A0001208DF82B0009A94F
:101620002E48FFF717FAA8B2ADF818000020ADF861
:101630001A000794ADF8200006A9294800F0B6FA70
:101640006020ADF804000120ADF806000020ADF8E0
:10165000100001A9224800F055F96020ADF80400FF
:101660000120ADF806000020ADF8100001A91C48CB
:1016700000F090F96020ADF804000120ADF80600FC
:101680000020ADF8100001A9154800F0E3F9602032
:10169000ADF804000120ADF806000020ADF8100000
:1016A00001A90F4800F030FA08210D4800F068F950
:1016B00008210B4800F0C0F90821094800F01AFA87
:1016C0000821074800F05CFA0121054800F0E4F821
:1016D0000121034800F0EFF80BB030BD00080240D4
:1016E0000004004030B58BB004460D4601210420B3
:1016F000FFF734FC02220C213F48FFF7F3F90222E6
:101700000D213D48FFF7EEF902220E213A48FFF77E
:10171000E9F902220F213848FFF7E4F94FF470404D
:10172000099002208DF8280003208DF82900002060
:101730008DF82A0001208DF82B0009A92E48FFF70B
:1017400089F9A8B2ADF818000020ADF81A00079486
:10175000ADF8200006A9294800F028FA6020ADF86D
:1017600004000120ADF806000020ADF8100001A92A
:10177000224800F0C7F86020ADF804000120ADF861
:1017800006000020ADF8100001A91C4800F002F985
:101790006020ADF804000120ADF806000020ADF88F
:1017A000100001A9154800F055F96020ADF80400BB
:1017B0000120ADF806000020ADF8100001A90F4887
:1017C00000F0A2F908210D4800F0DAF808210B48D2
:1017D00000F032F90821094800F08CF90821074887
:1017E00000F0CEF90121054800F056F80121034828
:1017F00000F061F80BB030BD000C02400008004062
:1018000010B501210C4800F062F801280ED10B48F8
:101810000088401C0949088008460088B0F57A7F96
:1018200004D107480088401C05490880012102486E
:1018300000F03EF810BD0000000C0040FC05002048
:10184000FE0500207FB505460C4601210820FFF764
:1018500085FB0295ADF804400020ADF80600ADF818
:101860000C0001A90B4800F0A1F90122114609481A
:1018700000F03EF832208DF8000001208DF80100C4
:1018800003208DF8020001208DF803006846FFF761
:10189000E9FA7FBD000C004021B1028842F08002CD
:1018A000028004E002884FF67F731A40028070477E
:1018B000CA430282704721B1028842F001020280CD
:1018C00004E002884FF6FE731A400280704730B57C
:1018D0000246002000230024158A05EA01039589A9
:1018E00005EA010413B10CB1012000E0002030BD75
:1018F0001AB183890B43838102E083898B438381FF
:101900007047000070B5002400220023058C4FF6BC
:10191000FE7635400584028C8388048B4FF68F75E4
:101920002C40B51E2C400D882C43751E2A408D89F5
:101930002A434D882A43104DA84202D00F4DA84299
:1019400013D14FF6F7752A40CD892A434FF6FB7520
:101950002A408D882A434FF6FF652B404FF6FF55EE
:101960002B400D8A2B434D8A2B43838004838D6843
:101970004563028470BD0000000001400004014086
:101980000A460021018B4FF6F7731940114301837A
:101990007047000070B5002400220023058C4FF62C
:1019A000EF7635400584028C8388048B48F6FF75FA
:1019B0002C404FF6FF452C400D884FF6FF7606EA87
:1019C00005252C434FF6DF752A408D8906EA05155B
:1019D0002A434D8806EA05152A43154DA84202D030
:1019E000144DA8421DD14FF67F752A40CD894FF680
:1019F000FF7606EA05152A434FF6BF752A408D8803
:101A000006EA05152A434FF6FF352B404FF2FF75C6
:101A10002B400D8A06EA85052B434D8A06EA85058B
:101A20002B43838004838D688563028470BD00002E
:101A300000000140000401400A460021018B4FF2E2
:101A4000FF7319404FF6FF7303EA02231943018322
:101A50007047000070B5002400220023058C4FF66B
:101A6000FF6635400584028C8388848B4FF68F7522
:101A70002C404FF6FC752C400D882C434FF6FF553B
:101A80002A408D894FF6FF7606EA05252A434D88C0
:101A900006EA05252A43154DA84202D0144DA84256
:101AA0001DD14FF2FF752A40CD894FF6FF7606EA29
:101AB00005252A434FF6FF352A408D8806EA05257D
:101AC0002A434EF6FF752B404DF6FF752B400D8ACD
:101AD00006EA05152B434D8A06EA05152B4383803C
:101AE00084838D68C563028470BD000000000140DE
:101AF000000401400A460021818B4FF6F77319401C
:101B0000114381837047000070B500220023002438
:101B1000058C4EF6FF7635400584038C8488828BD5
:101B200048F6FF752A404FF6FF452A400D884FF6CC
:101B3000FF7606EA05252A434DF6FF752B408D8971
:101B400006EA05352B434D8806EA05352B430A4D39
:101B5000A84202D0094DA84208D14BF6FF752C408F
:101B60000D8A4FF6FF7606EA85152C438480828322
:101B70008D680564038470BD0000014000040140CD
:101B80000A460021818B4FF2FF7319404FF6FF7315
:101B900003EA0223194381837047416370478163DD
:101BA0007047C163704701647047000000220288DB
:101BB000184B98420ED0184B98420BD0B0F1804F82
:101BC00008D0164B984205D0154B984202D0154BC1
:101BD000984204D14FF68F731A404B881A43124B28
:101BE000984207D0114B984204D04FF6FF431A4059
:101BF0000B891A4302804B68C3620B880385054B2F
:101C0000984202D0044B984201D18B7A038601237B
:101C1000838270470000014000040140000400403E
:101C200000080040000C004000100040001400407C
:101C300010B50C2000F0B6F8B0F5FA6F0EDD00F02C
:101C40006BFE0A2000F0C4F90C2000F0ABF8B0F5F0
:101C5000FA6F01DD00F05AFE012010BD0020FCE704
:101C6000704721B1828942F40052828104E0828966
:101C70004DF6FF731A4082817047F0B50346002489
:101C800000260025002040F66A17B94200D100BFA7
:101C90001846C1F3421401F01F06012707FA06F5A2
:101CA000012C01D10C3004E0022C01D1103000E0F5
:101CB00014301AB107682F43076002E00768AF438A
:101CC0000760F0BD2DE9FF4705460E460024A146FA
:101CD00000BFA046B08900B100BF2C8A24F4405454
:101CE000F08804432C82AC8941F20C608443B088B4
:101CF00031890843718908430443AC81AC8A24F4D8
:101D00004074B0890443AC826846FFF757F9204815
:101D1000854202D01F48854202D1DDF80C9001E0D7
:101D2000DDF80890A88900F4004040B109EBC90033
:101D300000EB091031684900B0FBF1F707E009EB4F
:101D4000C90000EB091031688900B0FBF1F764208D
:101D5000B7FBF0F004012009642101FB1078A88989
:101D600000F4004040B1322000EBC800B0FBF1F0BD
:101D700000F00700044308E0322000EB0810642163
:101D8000B0FBF1F000F00F0004432C81BDE8FF87A9
:101D9000001001400014014000BFFEE7014600BFF3
:101DA0007047000070B504460025102C29D2DFE8EA
:101DB00004F0080A0C0E10121416181A1C1E202209
:101DC00024260A251DE00B251BE00C2519E00D2516
:101DD00017E0002515E0012513E0022511E0032599
:101DE0000FE004250DE005250BE0062509E0072599
:101DF00007E00E2505E00F2503E0082501E0092591
:101E000000BF00BF284600F083FB024830F81500F1
:101E100070BD0000AC06002010B500F001F810BD48
:101E20000120034908700020024908607047000043
:101E300000060020AC82414210B5012000F00AF9F2
:101E400034490860022000F005F933490860314840
:101E5000006818B908460068002859D001202F49A9
:101E600008606FF0C7010846FEF76CFE642000F0C2
:101E7000AFF80220FFF796FFB0F52F7F13DB0320AA
:101E8000FFF790FFB0F52F7F0DDB0220FFF78AFFF1
:101E900040F69801884206DC0320FFF783FF40F6F6
:101EA0009801884203DD00201C49086005E00021FC
:101EB0000846FEF747FE012010BD01F0D9FA0128BF
:101EC00000D1F9E716490846FEF73CFEFA2000F07B
:101ED0007FF81048006828B11149C8390020FEF782
:101EE00031FE07E00C48006820B100210C48C838DA
:101EF000FEF728FE0748006838B10748006820B19F
:101F00004FF4C87000F064F802E0C82000F060F8F8
:101F10000020D1E75C060020600600206C0600204F
:101F2000A8FDFFFF70B504211248FEF707FE01214E
:101F30001048FEF705FE002414E004F1B00001F0A3
:101F400033FA002001F030FA102001F02DFA0025BC
:101F500004E0002001F05AFA681CC5B2802DF8DBBD
:101F6000601CC4B2082CE8DB04210248FEF7E8FD3F
:101F700070BD000000100240002107E0002200E0D8
:101F8000521C41F27C539A42FADB491C8142F5DB38
:101F90007047000010B504466FF00400FFF766FAC2
:101FA000E11704EB5171C1F3C701074A11701046E4
:101FB000007800EB4001C1EBC0104FF6FF7101EA61
:101FC000C0000249088010BD780600207A06002073
:101FD00070B504464FF4077094FBF0F0C6B24FF4AE
:101FE000077094FBF0F100FB114085B205E04FF45F
:101FF000077000F009F8701EC6B2002EF7D115B1B7
:10200000284600F001F870BD0146114A12884A4383
:102010004FF0E0235A6100229A611A46126942F099
:1020200001021A6100BF4FF0E022106900F00102C6
:102030001AB100F48032002AF5D04FF0E022126984
:1020400022F001024FF0E0231A6100229A617047EA
:102050007A060020014600201A2915D2DFE801F097
:102060000D151D262FE938414A535C656E7780892E
:10207000929AA3ACB4BCC5CED7E06F4A1268012ACD
:1020800001D1012000E00020D3E06C4A1268012A4F
:1020900001D1012000E00020CBE0684A121D126847
:1020A000012A01D1012000E00020C2E0634A083289
:1020B0001268012A01D1012000E00020B9E05F4A46
:1020C0000C321268012A01D1012000E00020B0E0AA
:1020D0005A4A14321268012A01D1012000E000207E
:1020E000A7E0564A18321268012A01D1012000E007
:1020F00000209EE0514A1C321268012A01D10120C1
:1021000000E0002095E04D4A20321268012A01D1FA
:10211000012000E000208CE0474A20321268012AAA
:1021200001D1012000E0002083E0434A24321268FC
:10213000012A01D1012000E000207AE03E4A283245
:102140001268012A01D1012000E0002071E03A4A22
:102150002C321268012A01D1012000E0002068E041
:10216000354A30321268012A01D1012000E00020F6
:102170005FE0314A34321268012A01D1012000E0C7
:10218000002056E02E4A1268012A01D1012000E009
:1021900000204EE02A4A121D1268012A01D10120B6
:1021A00000E0002045E0264A08321268012A01D1E9
:1021B000012000E000203CE0224A1268012A01D1FF
:1021C000012000E0002034E01F4A1268012A01D1FA
:1021D000012000E000202CE0194A203A1268012A70
:1021E00001D1012000E0002023E0154A1C3A1268CA
:1021F000012A01D1012000E000201AE0104A183A1B
:102200001268012A01D1012000E0002011E00C4AEF
:10221000143A1268012A01D1012000E0002008E0F0
:10222000074A103A1268012A01D1012000E000207B
:1022300000BF00BF70470000088240421C024242BB
:10224000208241423C024042300241422DE9F047A7
:102250008EB082460E4615460024A8E0285DB028C0
:1022600037DB285DF72834DC601C285CA12830DBD4
:10227000285DB0385E2110FB01F050490860601CF9
:10228000285C00F2AD20096808444C490860084603
:1022900000684001086008460068C0F30747084628
:1022A0000088C0F30728084690F80090202006AB6D
:1022B0004A4641460090384600F0A0F906AA314649
:1022C000504600F0CDF8A01CC4B206F11000C6B212
:1022D0006DE0285DA12836DB285DA32833DC601C77
:1022E000285CA1282FDB285DA1385E2110FB01F0BE
:1022F00032490860601C285CA138096808442F49ED
:102300000860084600684001086008460068C0F39D
:10231000074708460088C0F30728084690F8009051
:10232000202006AB4A4641460090384600F066F948
:1023300006AA3146504600F093F8A01CC4B206F13C
:102340001000C6B233E0285D20282EDB285D7E28F1
:102350002BDC285D20381949086008460068000118
:102360000860084600681649084414490860084691
:102370000068C0F3074708460088C0F307280846EE
:1023800090F80090102002AB4A4641460090384633
:1023900000F034F902AA3146504600F08FF8601C74
:1023A000C4B206F10800C6B201E0601CC4B2285DE8
:1023B00000283FF753AF0EB0BDE8F087F4050020CA
:1023C00080CF0300F8B505460E4614460A2094FB5C
:1023D000F0F100FB11403030C0B28DF80000002059
:1023E0008DF801006A4631462846FFF72FFFF8BDF9
:1023F0007CB505460E4614464FF47A7094FBF0F017
:102400003030C0B28DF800004FF47A7094FBF0F1D8
:1024100000FB1140642190FBF1F03030C0B28DF828
:102420000100642094FBF0F100FB11400A2190FBB5
:10243000F1F03030C0B28DF802000A2094FBF0F1C8
:1024400000FB11403030C0B28DF8030000208DF841
:1024500004006A4631462846FFF7F8FE7CBD0000BE
:102460002DE9F04104460E46154604211248FEF7B8
:1024700065FB01211048FEF763FB4FF0020812E0F4
:10248000E1B2F0B200F030FA002705E0287800F061
:10249000BDFF6D1C781C87B2102FF7DB641CA8F100
:1024A00001001FFA80F8B8F1000FE9DC04210248AE
:1024B000FEF746FBBDE8F081001002402DE9F04137
:1024C00004460E46154604211048FEF737FB4FF030
:1024D000020812E0E1B2304600F006FA002705E0FB
:1024E000287800F093FF6D1C781C87B2082FF7DB6B
:1024F000641CA8F101001FFA80F8B8F1000FE9DCB4
:1025000004210248FEF71CFBBDE8F08100100240E8
:1025100070B52DED088B0446194830F814001949A0
:1025200021F81400084630F81460174830F81450A9
:10253000304601F09CF941EC1B0B9FED140B53EC62
:10254000102B01F0A7F941EC190B284601F08FF987
:1025500041EC1B0B9FED0F0B53EC102B01F09AF984
:1025600041EC1A0B53EC192B01F0ACF841EC180BB1
:1025700001F050F9024921F81400BDEC088B70BD40
:10258000AC060020CC0600208C0600209899999972
:102590009999C93F9A9999999999E93F70B50024F9
:1025A00020211548FEF7CCFA00BFFEF73DFA0025C2
:1025B0001CE002211048FEF7C3FA00BF20210E489C
:1025C000FEF7BCFA00BF6006040E02210A48FEF7BF
:1025D000ACFA18B1601CC4B200BF01E0E4B200BFA5
:1025E00020210548FEF7ACFA681CC5B2082DE0DBD7
:1025F000FEF704FA204670BD001002402DE9F047B6
:1026000080460D4616461F46DDF8209001211348EE
:10261000FEF794FA04211148FEF792FA20210F48A0
:10262000FEF78CFA032000F04BFC404600F048FC1B
:10263000284600F045FC304600F042FC002404E04F
:10264000FFF7ACFF3855601CC4B24C45F8DB0121E4
:102650000248FEF775FABDE8F0870000001002405E
:1026600010B50446012C04D101210548FFF723F9D8
:1026700004E01CB900210248FFF71DF910BD00005D
:102680000008004010B500207C4908607C490860C3
:102690007C4908607C4908607C4908607C49086086
:1026A0007C4908607C4908600220FFF77BFB7B497E
:1026B0000968884206DC0320FFF774FB7749096844
:1026C000884202DD01206D4908600B20FFF76AFB9C
:1026D0007249096888420DDC0A20FFF763FB6F49E5
:1026E0000968884206DC0920FFF75CFB6B49096832
:1026F000884202DD0120624908600520FFF752FB95
:102700006649096888420DDC0620FFF74BFB6349E8
:102710000968884206DC0720FFF744FB5F49096827
:10272000884202DD0120574908600820FFF73AFB84
:102730005A490968884206DC0E20FFF733FB5749E7
:102740000968884202DD01204F4908604B48006853
:10275000012814D14C48006801280DD00A20FFF749
:1027600021FB4E490968884206DC0620FFF71AFB68
:102770004A490968884202DD01204649086042480A
:102780000068012822D13D48006801281BD00A209A
:10279000FFF708FB41490968884214DC0B20FFF76A
:1027A00001FB3E49096888420DDC0620FFF7FAFA72
:1027B0003A490968884206DC0520FFF7F3FA3749F1
:1027C0000968884202DD0120334908602C4800680E
:1027D000012814D12B48006801280DD00320FFF7F1
:1027E000E1FA2E490968884206DC0820FFF7DAFA88
:1027F0002A490968884202DD0120244908602148ED
:102800000068012814D11E48006801280DD002205C
:10281000FFF7C8FA21490968884206DC0820FFF75B
:10282000C1FA1E490968884202DD01201849086082
:10283000FFF778FB1748006801280BD0164800689E
:10284000012807D011480068012803D0104800680B
:10285000012808D101201249086012A2022108466D
:10286000FFF7F4FC07E000200D49086015A20221E3
:102870000846FFF7EBFC0A48006810BD340600204C
:10288000380600203C0600204006002044060020B8
:10289000480600204C060020500600202406002098
:1028A00030060020742061206920202078206920D3
:1028B000612D2D2D2D2D2D2D2D2D2D2D2D2D2D2D14
:1028C0002D2D2D0074206120692020732068206147
:1028D000206E20672D2D2D2D2D2D2D2D2D2D2D2DC7
:1028E0002D2D2D2D2D2D2D0070B504460D4605F1F5
:1028F000B00000F059FD102141EA141000F054FD21
:1029000004F00F0000F050FD70BD000001200149EF
:1029100008607047B00240420020014908607047DB
:10292000B0024042FEF75CFA00F020FC79E00020A3
:10293000FEF7D2F93B490870084600783A4908701A
:102940003AA201210020FFF781FC3BA201210220D5
:10295000FFF77CFC3BA201210420FFF777FC3CA29F
:1029600001210620FFF772FC0020FEF7B5F92D4982
:1029700008700846007818B1084600782A4908709F
:1029800029480078012802D100F02EFC49E02648B1
:102990000078022818D100F0F1FAFFF7C3FA31A24B
:1029A00001210220FFF752FC06E00A20FFF7FAF9A6
:1029B000B0F5FA6F00DB00E0F7E700BF00F052FE71
:1029C00001E000F06FFEFCE717480078032802D111
:1029D000FFF7A8FA25E014480078042821D1002048
:1029E000104908701BE0FFF79DFA21A20121062083
:1029F000FFF72CFC6FF031013220FEF7A3F83220F4
:102A0000FFF7E6FA0020FEF767F906490870084666
:102A1000007820B100210846FEF794F800E0E2E7D4
:102A200000BF84E70C0600200D06002031A1A2BCE7
:102A3000ECB2E2C4A3CABD0032A1A2D6F7B3CCD097
:102A4000F200000033A1A2B2E2CAD4B3CCD0F200AB
:102A500034A1A2B5E7BBFAD5FDB7B4D7AAB2E2CA92
:102A6000D4000000676F676F676F212121000000AD
:102A7000476F6F644D6F746F2835302C2D353029BA
:102A80000000000070B505460C46B4F57A7F01DD04
:102A90004FF47A7414F57A7F00DA2C4C9DB9002C2F
:102AA00008DB21462A48FFF778F800212848FFF77D
:102AB00076F849E061422648FFF771F80021244882
:102AC000FFF76BF840E0012D13D1002C08DB214605
:102AD0001F48FFF766F800211D48FFF764F833E050
:102AE00061421B48FFF75FF800211948FFF759F8CA
:102AF0002AE0022D13D1002C08DB21461548FFF7F0
:102B00004CF800211348FFF74AF81DE061421148D4
:102B1000FFF745F800210F48FFF73FF814E0032DB9
:102B200012D1002C08DB21460A48FFF73AF80021B1
:102B30000848FFF738F807E061420648FFF733F826
:102B400000210448FFF72DF870BD000018FCFFFFBE
:102B5000000800400004004010B5002099490860BA
:102B60000220FFF71FF9B0F5FA6F40DD0820FFF7EC
:102B700019F940F24C41884206DC0E20FFF712F9A9
:102B800040F24C41884232DD0C20FFF70BF9B0F5E2
:102B9000167F2CDA0620FFF705F940F2262188423D
:102BA00025DA0A20FFF7FEF840F2262188421EDAD5
:102BB00085480068401C844908600846006803286E
:102BC00014DD4FF4C8710846FDF7BCFF4FF4C87020
:102BD000FFF7FEF97D4801680068FDF7B3FF4FF489
:102BE0007A70FFF7F5F900207749086070E002205D
:102BF000FFF7D8F8B0F5FA6F05DC0320FFF7D2F83D
:102C0000B0F5FA6F10DD0520FFF7CCF8B0F5966F40
:102C10000ADD0620FFF7C6F840F22621884203DDD0
:102C200001206849086053E00220FFF7BBF8B0F5C7
:102C3000FA6F05DC0320FFF7B5F8B0F5FA6F10DD89
:102C40000B20FFF7AFF8B0F5966F0ADD0A20FFF70B
:102C5000A9F840F22621884203DD02205949086084
:102C600036E00220FFF79EF8594908600320FFF77D
:102C700099F8584908605648006840F6340188427F
:102C800003DC54480068884208DD6FF0C70108463D
:102C9000FDF758FF6420FFF79BF919E04E480068E4
:102CA000401C4D4908606FF0C701C820FDF74AFF7E
:102CB00049480068C8280BDD0020474908604FF4E8
:102CC00096710846FDF73EFF4FF47A70FFF780F9E2
:102CD0003C480068012803D03A480068022805D122
:102CE0003E480068401C3D49086002E000203B4926
:102CF00008603A480068642862DD324800680228AB
:102D00002DD137490846FDF71DFFC820FFF760F9B0
:102D100004E06FF0C701C820FDF714FF0220FFF7A1
:102D200041F8B0F5FA7F05DD0320FFF73BF8B0F579
:102D3000FA7FEEDC4FF4C8710846FDF703FF4FF44D
:102D40007A70FFF745F9FA214842FDF7FBFE4FF490
:102D5000FA70FFF73DF900202049086030E019487B
:102D6000006801282CD11E490846FDF7EBFEC8205B
:102D7000FFF72EF903E0C8214842FDF7E3FE0220E9
:102D8000FFF710F8B0F5FA7F05DD0320FFF70AF82A
:102D9000B0F5FA7FEFDC4FF4C8710846FDF7D2FEBC
:102DA0004FF47A70FFF714F96FF0F901FA20FDF78C
:102DB000C9FE4FF4FA70FFF70BF9002007490860CD
:102DC000002010BD540600205806002018060020E0
:102DD0005C060020600600206406002068060020D3
:102DE000D4FEFFFF10B5FFF727F82F480068012831
:102DF00023D10220FEF7D6FFB0F52F7F13DB03208F
:102E0000FEF7D0FFB0F52F7F0DDB0220FEF7CAFFE3
:102E100040F69801884206DC0320FEF7C3FF40F627
:102E20009801884203DD00201F49086005E0002169
:102E30000846FDF787FE002010BD00201B490860F2
:102E40000220FEF7AFFF1A490968884206DA03201C
:102E5000FEF7A8FF16490968884202DB01201349E2
:102E600008601248006840B9124801680068FDF720
:102E700069FE00201049086013E00F4800686428CC
:102E800005DB4FF461710846FDF75CFE09E00B4875
:102E900001680068FDF756FE07480068401C0649B7
:102EA00008600020C8E700006C06002070060020C3
:102EB00020060020140600207406002010060020C2
:102EC00070B5044600251BE004F0800028B11021F5
:102ED0000D48FDF735FE00BF04E010210A48FDF75C
:102EE0002DFE00BF6006040E20210748FDF726FED8
:102EF00000BF20210448FDF723FE00BF681CC5B2B7
:102F0000082DE1DB70BD00000010024070B50546E1
:102F10000C46012D23D0022D17D0032D0BD0042DEC
:102F200027D104EB440000EB0410C0F57B6112488C
:102F3000FEF733FE1DE004EB440000EB0410C0F587
:102F40007B610D48FEF72BFE13E004EB440000EB21
:102F50000410C0F57B610848FEF723FE09E004EB8E
:102F6000440000EB0410C0F57B610348FEF71BFE34
:102F700000BF00BF70BD00000008004010B5002079
:102F8000FDF7AAFE6A49087008460078694908708A
:102F900005200870C9E0FEF7C5FF67A201210020E7
:102FA000FFF754F967A23C210020FFF74FF966486C
:102FB000008882B242210020FFF71AFA3220FFF780
:102FC00007F80020FDF788FE594908700846007888
:102FD00018B108460078574908705648007802280A
:102FE00007D15948006832385749086000205149D4
:102FF000087050480078032807D1534800683230E1
:103000005149086000204B4908704A48007804285C
:10301000C0D105204749087084E0FEF783FF4BA22A
:1030200001210220FFF712F946A23C210020FFF700
:103030000DF94948008882B242210220FFF7D8F9F1
:103040003220FEF7C5FF0020FDF746FE3849087024
:103050000846007818B108460078364908703548A7
:103060000078022807D13C48006832383A490860A5
:103070000020304908702F480078032807D13648CF
:10308000006832303449086000202A490870294815
:103090000078042846D142E0052026490870FEF752
:1030A00041FF2EA201210420FFF7D0F825A23C21E8
:1030B0000020FFF7CBF82C480088404282B2422122
:1030C0000420FFF795F93220FEF782FF0020FDF77C
:1030D00003FE174908700846007818B108460078C2
:1030E0001449087013480078022807D11E48006868
:1030F00032381D49086000200E4908700D480078DC
:10310000032807D1184800683230174908600020AA
:103110000849087007480078012800D100E0BBE7A3
:1031200000BF00E079E700BF00E034E700BF10BD5A
:103130000C0600200D060020B9A5BBF7CBD9B6C8F8
:10314000000000002A00000010060020D1B2CCA828
:10315000CBD9B6C80000000014060020C9CFCCA807
:10316000CBD9B6C8000000001806002010B50AA28E
:1031700001210220FFF76AF8FEF74EFEFFF7CCFBB5
:103180004FF49670FEF724FFFEF746FEFFF7BEFBF6
:10319000FEF7C8FE10BD00002020202077656C637C
:1031A0006F6D650010B5002004490880044908804F
:1031B00001218807FEF77FFB10BD0000F805002005
:1031C000FA05002010B50020044908800449088051
:1031D00001210448FEF76FFB10BD0000FC05002034
:1031E000FE050020000C004070B50025FEF79AFE99
:1031F000A3E053A201210020FFF728F854A20121E7
:103200000220FFF723F855A201210420FFF71EF842
:1032100055A201210620FFF719F80020FDF75CFDFB
:103220000546012D04D1FDF749F9FEF77BFE84E048
:10323000022D29D127E0FEF775FE002421E04CA2E3
:1032400001210020FFF702F84CA201210220FEF725
:10325000FDFFA2B21E210420FFF7CAF8214601207B
:10326000FFF754FE21460220FFF750FE6420FEF7D0
:10327000AFFEFEF7DDFC012803D1641C6420FEF7DD
:10328000A7FEB42CDBDDD6E7032D51D14FE0FEF7CE
:1032900049FE002448E03CA201210020FEF7D6FFB1
:1032A0003CA201210220FEF7D1FF002C0ADB3CA248
:1032B00014210420FEF7CAFFA2B21E210420FFF74A
:1032C00097F80AE037A214210420FEF7BFFF6042FE
:1032D00082B21E210420FFF78BF821462046FDF71D
:1032E00031FC0020FDF7F8FC0546012D07D1B4F5AF
:1032F0007A7F04DA32346420FEF76AFE13E0022D8E
:1033000007D114F57A7F04DD323C6420FEF760FEBD
:1033100009E0032D04D164426420FEF759FE02E067
:10332000042D00D107E00025B4F57A7FB3DDAEE7C8
:10333000042D02D100BF002500E05AE700BF70BD98
:1033400031A1A2B4ABB8D0C6F7BCECB2E200000029
:1033500032A1A2B6E6BBFABCECB2E20033A1A2B540
:10336000E7BBFABCECB2E20034A1A2B7B5BBD8000F
:10337000B4A5C3FED2D4D4F6BCD30000B6E6BBFAE3
:1033800050574D3A00000000B0B4BCFCD2D4B8C4D1
:10339000B1E40000B5E7BBFAD7AACBD93A000000E8
:1033A000200000002D00000070B5044608211648DA
:1033B000FDF7C4FB04211448FDF7C0FB002517E00E
:1033C00020211148FDF7BAFB04F0800020B1102144
:1033D0000D48FDF7B5FB03E010210B48FDF7AEFBF0
:1033E00020210948FDF7ACFB00BF6400681CC5B292
:1033F000082DE5DB08210448FDF7A2FB0421024863
:10340000FDF79EFB70BD00000010024070B5044641
:1034100008211648FDF794FB04211448FDF78EFBA4
:10342000002517E020211148FDF788FB04F08000FB
:1034300020B110210D48FDF783FB03E010210B485C
:10344000FDF77CFB20210948FDF77AFB00BF6400F3
:10345000681CC5B2082DE5DB08210448FDF770FBA8
:1034600004210248FDF76CFB70BD00000010024013
:1034700010B50220FEF796FC30490968884206DA4A
:103480000320FEF78FFC2D490968884201DB0120EB
:1034900010BD0120FEF786FC2849096888421BDA26
:1034A0000B20FEF77FFC25490968884214DA0A20C0
:1034B000FEF778FC2149096888420DDA0920FEF7F9
:1034C00071FC1E490968884206DA0E20FEF76AFC84
:1034D0001A490968884206DB4FF42F714842FDF70C
:1034E00031FB0120D4E70D20FEF75CFC134909688D
:1034F00088421BDA0520FEF755FC1049096888420E
:1035000014DA0620FEF74EFC0C49096888420DDAF1
:103510000720FEF747FC09490968884206DA0820B7
:10352000FEF740FC05490968884205DB044948422A
:10353000FDF708FB0120ABE70020A9E720060020EB
:1035400044FDFFFF30B587B005460C460121C80495
:10355000FDF704FD01214804FDF700FD0121880469
:10356000FDF7FCFC072206213A48FDF7BBFA0722CB
:1035700011463848FDF7B6FAC020059002208DF8B4
:1035800018008DF8190000208DF81A0001208DF820
:103590001B0005A92F48FDF75DFA012D15D10194F7
:1035A0000020ADF80800ADF80A00ADF80C00ADF849
:1035B00010000C20ADF80E0001A92748FEF782FB91
:1035C00001212548FEF74DFB2EE0022D15D1019477
:1035D0000020ADF80800ADF80A00ADF80C00ADF819
:1035E00010000C20ADF80E0001A91C48FEF76AFB84
:1035F00001211B48FEF735FB16E0032D14D1019481
:103600000020ADF80800ADF80A00ADF80C00ADF8E8
:1036100010000C20ADF80E0001A90F48FEF752FB78
:1036200001210E48FEF71DFB012240F225510A48F8
:10363000FEF723FB27208DF8000003208DF8010002
:1036400001208DF802008DF803006846FDF70AFCA2
:1036500007B030BD00040240004800400044004074
:10366000004C004010B5FEF75DFC0BA205210220C6
:10367000FEF7ECFD0A490846FDF764FA4FF47A704C
:10368000FEF7A6FC4FF42F714842FDF75BFA4FF4AA
:10369000C870FEF79DFC10BDC9CFCCA8000000008B
:1036A0007CFCFFFF0BE0FEF7EDFF054908600846D4
:1036B000006810B1FFF750FA01E0FFF793FBF2E763
:1036C0003006002010B591EA030F48BF83F0004395
:1036D00000F1E681841A71EB030C05D2121943EB59
:1036E0000C03001B61EB0C01DFF824E14FEA1154DD
:1036F000A4EB135C1EEA430F18BF9EEA445F73D02D
:1037000023EA0E03DCF1200E21EA045143F4801376
:1037100032D322FA0CFE10EB0E0023FA0CFE41EB22
:103720000E01CCF1200E03FA0EFE10EB0E0051F14B
:103730000001B1F5801FCCF1200E32D201EB045113
:1037400012FA0EF2BDE8104058BF7047401C38BF57
:103750005FEA420218BF7047002814BF20F0010042
:1037600041F100014FEA410313F5001F38BF7047D4
:10377000A1F1C04100F086B9012A43EB0302ACF18C
:10378000200CDCF11F0E32BF4FF0000E23FA0CF3B9
:1037900010EB030041EB0451B4EB115FD0D0A1EB6F
:1037A000045101F5801149085FEA300001EB045132
:1037B0000ED350F1000038BF12FA0EFE08D1BDE85A
:1037C0001040C9E7401C38BF5FEA4202CAD1C3E7D4
:1037D000BDE810404FEA410313F5001F38BF7047A2
:1037E000A1F1C04100F04EB99EEA445F08D011EA51
:1037F0005E0FBDE8104004BF01F00041002070479B
:10380000BDE8104070B500F0EFF800BF64FBBE3EAD
:103810000000E0FF4FEA1153A3F58063D3F11E03CC
:10382000A8BFD3F1200C08DB4FF0004242EAC122CE
:1038300052EA505232FA03F0704709420BD4102B6F
:10384000C4BF0020704703F5787CBCF1FF3F05D072
:103850004FF0FF3070474FF00000704770B500F038
:10386000C3F800BF4992248000207047F0E7B0FA07
:1038700080F310FA03F10AD0C3F11D0303F580634E
:103880004FEA41504FEA035202EBD12170474FF00B
:1038900000007047DFF848C170B51CEA111E1EBF5A
:1038A0001CEA13159EEA0C0F95EA0C0F00F06F80CE
:1038B00081EA030423EA4C134EEAD47E21EA4C1138
:1038C00041F4801143F48013AE44A1FB024CA0FBF1
:1038D0000365AEF17F7E361955EB0C05A1FB034C59
:1038E0004CF10003A0FB021C16EB0C06654153F1E2
:1038F0000003094218BF46F0010613F4007F0BD104
:103900004FEA03314FEA0530340341EA155140EAEA
:1039100016506FF003020AE04FEAC3214FEAC520B8
:10392000F40241EA555140EA56506FF0020202EBB0
:103930002E4201EB025585EACE710AD05FEA440CB3
:1039400018BF24F0004450F1000041F1000120EACA
:10395000D47040F2FE7C624500D270BDA84214BF14
:103960004FF080444FF04044002E08BF0024BEF1C9
:10397000806FA8BFA1F1C041BDE8704080F2828095
:103980004FF0000001F1C04101F0004170479EEA94
:103990000C0F0CEA131518BF95EA0C0F06D04FF068
:1039A000000081EA030E0EF0004170BD00F01CF82B
:1039B0008900013E00F007B800F009B84FEA430C57
:1039C0005FEA5C5C08D081EA030100F05BB84FEA73
:1039D000410C5FEA5C5CF6D14FF000000149704792
:1039E0000000FF070000F87F0EF1020E2EF0030E1C
:1039F0005EF8046B364205D4012A43EB030515F546
:103A0000001F12D8012841EB010C1CF5001F0CD837
:103A10000ED14FEAD17C15F5001F0CEB4C0C0CF1CC
:103A2000020C08BF4CEBD37C04E04FF0080C01E023
:103A30004FEAD37C0CEB4C0526FA05F606F0070698
:103A4000B6F1040C06D20EEB860CBDE870404CF0CB
:103A5000010C6047DFE80CF0090B02024FF0004157
:103A60004FF00000A1F5002170BD19461046012855
:103A700051EB010418BFD4F5001484BF002001F0FD
:103A8000004170BD0808A0F500114FEA31017047F0
:103A900010B591EA030F48BF83F000433FF51AAE1B
:103AA000841A71EB030C07D212198CF0004C43EB13
:103AB0000C03001B61EB0C01DFF8A4E14FEA115489
:103AC000A4EB135C1EEA430F18BF9EEA445F00F0AC
:103AD000B08023EA6E03524221EA0451C3EB6E0325
:103AE00038BF5B1EDCF1200E25D322FA0CFE10EB52
:103AF0000E0043FA0CFE41EB0E01CCF1200E03FA4E
:103B00000EFE10EB0E0051F10001CCF1200E29D475
:103B100012FA0EF201EB0451BDE8104058BF704795
:103B2000401C1CBFB2F1004F704700280CBF491C5D
:103B300020F00100704712EB020E43EB030218BFA6
:103B40004FF0010E4EEA4202ACF1200CDCF11E0EE9
:103B500054D943FA0CFE10EB0E0051F1FF31CCF1B9
:103B60001E0ED5D50EF1010E12FA0EFE404141EBAC
:103B7000010101EB445C5FEA5C5C10D910EBDE7084
:103B800001EB045138BFBEF1004FBDE8104018BF33
:103B9000704700280CBF491C20F00100704730D24C
:103BA0004FEAD42C11F5001124F400641BD0B1FAB3
:103BB00081F20B3AA41AA41ED2F12003914030FAEC
:103BC00003F31943904001EBCC71002C01EB04513D
:103BD000BDE81040A8BF704701F1C0414FF00000A0
:103BE00001F000417047B0FA80F310FA03F100D100
:103BF00010BDE41A173C4805C90AE4E701EB04517B
:103C000010BD491001EB0451BDE810404FEA3000EF
:103C100002E04FF0000170474A0008BF0042F8D0B0
:103C2000B2F5001F28BF704701F000414FF00000BF
:103C300070479EEA445F07D011EA5E0FBDE810406E
:103C400004BF002100207047BDE8104070B5FFF7A9
:103C5000CBFE00BF40DFF63E83F0004110467047C8
:103C60000000E0FF4FF04070E1EE100A70470000E6
:103C7000903C0008000000208C060000C4010008F1
:103C8000284000088C060020C4060000200200081E
:103C900002160172F84333301C100C0603912C40BD
:103CA000C07803112C043F0403212D7088FC0829DF
:103CB000261820FF211E14F008F033E0184D211CB7
:103CC000031E11338870000C101E21232419272194
:103CD0001010160E45E018040225071820403D027A
:103CE0000418E0692C20180707174080F080404036
:103CF0003F0202010F01022842F01D0101011F04D1
:103D0000912B80B066B1191D2901913A30CE492C12
:103D1000146018043C6018061D1EE010080810729C
:103D20001F0F102020100FF05310F83620203F20D6
:103D3000203C700808C21E3028242221441E30086E
:103D4000888848082E1820202011CC3BC02032271C
:103D5000070424243F241AF8202308084B192120A3
:103D600036E0108888184B0F11101E380808C83824
:103D70002021523F1A702E29608F1C222121221CE3
:103D800090111D31222211901961CAC0C26A80C6E9
:103D900059081C40201050170102040810204A4006
:103DA00001114A04012119152A403219251B040268
:103DB000F21B7048D13AF0501A360F1EC030C82896
:103DC000E87028080718272423140B6F2A387E2848
:103DD0000D203C23020227382008F888889F4B20BA
:103DE0003FF01BC0303F1B083830191019781B08F2
:103DF000F80F194039201B100F103E8888E8081072
:103E000010AC23201810112A035E294022382940C3
:103E10002C221E024019A41809F808203F21010194
:103E200021252A0852298129424149112EC080802A
:103E3000807F0E2FF888C0281808501C0126382FC4
:103E40002940292F29801B20301012F81AF814134A
:103E5000203F190229204B30C0601A2074123F4BBA
:103E6000E010B06B0F10B029D01AF0301980220189
:103E700079203F18242438504FC04C888870C014D3
:103E80000C30204B7088C11738202121221C3A1891
:103E90009F4A188239A049D0112A1F90121F240866
:103EA00078881BC838151C07380E60191A1AF820B4
:103EB0001114033C0714073C034814081868808059
:103EC00068180820302C03032C30200838C82F59DC
:103ED00050298F29102F203826212020681145FED7
:103EE000020202257F4040401A0CE0611C010638A6
:103EF0000B191D42FE191D527F1A04120211045A99
:103F000080011930D91D39162118081924222222BE
:103F10003F20AB390F115F3F112020110E21311AC4
:103F20000E104B2011104B88F8102A10B359401A6C
:103F30001F3F2B22130F16F0888888181A20D029CB
:103F4000D1497A21176B94949493603960190F4C7E
:103F5000203F21F354809898793059121AC02719BC
:103F6000D1193039311F203F24022D30212A081267
:103F7000893069D7294B2903190BC96079A019BF6A
:103F80002B201FDD390F9C80FFA1E0191229D03BA7
:103F9000A0FF0C3950194112208A01C01B332401A3
:103FA0002A190F3AE0413952290F392349603C1050
:103FB0003F202C29053F010E3008060170291038DA
:103FC000080F300C030C300F2C49A14E312E0E314E
:103FD000200C29621D818E70183059D12157213053
:103FE0002C22213055807C0202443F404072FF3930
:103FF000083C02027C8F5440403F00082406010127
:10400000020204041ABC561A58041FE0FCFFFF8485
:10401000039319040A23B03A01362D010203040464
:08402000050006070809000075
:040000050800018965
:00000001FF
