:020000040800F2
:10000000F00C00206902000865110008710E00085C
:10001000611100086D080008A12000080000000020
:100020000000000000000000000000008116000831
:10003000390A0008000000003F1200089917000864
:10004000830200088302000883020008830200087C
:10005000830200088302000883020008830200086C
:10006000830200088302000883020008830200085C
:10007000830200088302000883020008830200084C
:10008000830200088302000883020008830200083C
:10009000830200088302000883020008830200082C
:1000A000830200088302000883020008830200081C
:1000B0000518000883020008830200088302000874
:1000C00083020008830200088302000883020008FC
:1000D000830200088302000883020008691F0008E9
:1000E00083020008830200088302000883020008DC
:1000F00083020008830200088302000883020008CC
:100100008302000883020008051B00088302000820
:1001100083020008830200088302000883020008AB
:10012000830200088302000883020008830200089B
:10013000830200088302000883020008830200088B
:10014000830200088302000883020008830200087B
:10015000830200088302000883020008830200086B
:10016000830200088302000883020008830200085B
:10017000830200088302000883020008830200084B
:10018000830200088302000800F002F800F05CF827
:100190000AA090E8000C82448344AAF10107DA45E2
:1001A00001D100F051F8AFF2090EBAE80F0013F0D8
:1001B000010F18BFFB1A43F0010318475038000025
:1001C000703800000A444FF0000C10F8013B13F0A7
:1001D000070408BF10F8014B1D1108BF10F8015BA0
:1001E000641E05D010F8016B641E01F8016BF9D193
:1001F00013F0080F1EBF10F8014BAD1C0C1B09D1EA
:100200006D1E58BF01F801CBFAD505E014F8016B5B
:1002100001F8016B6D1EF9D59142D6D370470000ED
:100220000023002400250026103A28BF78C1FBD8FF
:10023000520728BF30C148BF0B6070471FB503F09D
:10024000DFFB1FBD10B510BD00F033F81146FFF7FE
:10025000F5FF02F00DFD00F051F803B4FFF7F2FFD7
:1002600003BC01F01FFF0000094880470948004710
:10027000FEE7FEE7FEE7FEE7FEE7FEE7FEE7FEE756
:10028000FEE7FEE704480549054A064B70470000B3
:100290009D17000889010008F0060020F00C0020DE
:1002A000F0080020F0080020704770477047704742
:1002B0007047754600F028F8AE460500694653467B
:1002C00020F00700854618B020B5FFF7DBFFBDE83A
:1002D00020404FF000064FF000074FF000084FF0AD
:1002E000000B21F00701AC46ACE8C009ACE8C0093E
:1002F000ACE8C009ACE8C0098D4670470446AFF3CE
:1003000000802046FFF7A9FF004870478C060020B8
:1003100021B1826842F00102826003E0826822F02B
:1003200001028260704700000021084A1168084AF3
:100330001140D0E900231A4383681A43C3681A4363
:100340001143044AC2F8041370470000042301401B
:10035000E030FCFF0020014021B1826842F480724D
:10036000826003E0826822F480728260704721B16B
:10037000826842F40072826003E0826822F40072B4
:100380008260704710B50121080200F089FF00214A
:100390004FF4807000F084FF10BD000030B50246BD
:1003A000002000235068104C20400D790C6844EA6E
:1003B00005242043506090680C4C2040D1E9035440
:1003C0002C438D682C434D7944EA450420439060CA
:1003D000D06A20F470000C7D641EE4B2234340EA2E
:1003E0000350D06230BD0000FFFEFFFCFDF7FFC0F0
:1003F000F0B504460D4600200021092D11DDE0680E
:10040000A5F10A0606EB4607072606FA07F1884318
:10041000A5F10A0606EB460603FA06F10843E0607A
:100420000CE0206905EB4507072606FA07F188432B
:1004300005EB450603FA06F108432061072A0FDAA7
:10044000606B561E06EB86071F2606FA07F18843E7
:10045000561E06EB860605FA06F10843606322E0A5
:100460000D2A0FDA206BD61F06EB86071F2606FA29
:1004700007F18843D61F06EB860605FA06F1084306
:10048000206310E0E06AA2F10D0606EB86071F2646
:1004900006FA07F18843A2F10D0606EB860605FA77
:1004A00006F10843E062F0BD816841F0804181605F
:1004B000704700002DE9F0410124002600250127A6
:1004C0007BE1002000F08AFD06460EB13446374637
:1004D000012F26D101F08EFEBAA20121002002F0E8
:1004E0001DF8BDA20121022002F018F8BBA20121D3
:1004F000042002F013F8BAA20121062002F00EF83F
:10050000B8A24221022002F009F8B7A24221042039
:1005100002F004F8B5A24221062001F0FFFF0027F7
:1005200050E0022F26D101F065FEA6A20121002095
:1005300001F0F4FFAEA20121022001F0EFFFADA215
:100540000121042001F0EAFFABA20121062001F005
:10055000E5FFAAA24221022001F0E0FFA9A2422168
:10056000042001F0DBFFA9A24221062001F0D6FF02
:10057000002727E0032F25D101F03CFE91A20121A5
:10058000002001F0CBFFA3A20121022001F0C6FF51
:10059000A2A20121042001F0C1FFA2A20121062094
:1005A00001F0BCFFA0A24721022001F0B7FF9FA2EB
:1005B0004721042001F0B2FF9DA24721062001F04F
:1005C000ADFF0027681CC5B2642D00DB00250520A7
:1005D00095FBF0F100FB115048BB032C27D1012003
:1005E00001F0A0FE1FFA80F842461A21062002F010
:1005F00051F8022001F096FE1FFA80F84246602171
:10060000022002F047F8032001F08CFE1FFA80F868
:1006100042466021042002F03DF8042001F082FEF1
:100620001FFA80F842466021062002F033F8002DC0
:100630007DD1012C3CD1002001F03EFD1FFA80F855
:1006400042461A21022002F03BF8012001F034FD5D
:100650001FFA80F842461A21042002F031F80220E5
:1006600001F02AFD1FFA80F842461A21062002F006
:1006700027F8032001F020FD1FFA80F84246602190
:10068000022002F01DF8042001F016FD1FFA80F888
:1006900042466021042002F013F8052001F00CFD11
:1006A0001FFA80F842466021062002F009F881E036
:1006B000022C3DD1062001F0FFFC1FFA80F84246D3
:1006C0001A21022001F0FCFF072001F0F5FC1FFABF
:1006D00080F842461A21042001F0F2FF082001F0C0
:1006E000EBFC1FFA80F842461A21062001F0E8FFD1
:1006F000092001F0E1FC1FFA80F842466021022047
:1007000001F0DEFF0A2001F0D7FC1FFA80F8424614
:100710006021042001F0D4FF0B2001F0CDFC1FFA72
:1007200080F842466021062001F0CAFF42E03EE028
:10073000032C3FD10C2001F0BFFC1FFA80F8424689
:100740001F21022001F0BCFF0D2001F0B5FC1FFAB3
:1007500080F842461F21042001F0B2FF012001F081
:10076000E1FD1FFA80F842461A21062001F092FFAF
:10077000022001F0D7FD1FFA80F8424660210220D6
:1007800001F088FF032001F0CDFD1FFA80F84246FA
:100790006021042001F07EFF042001F0C3FD1FFA58
:1007A00080F842466021062001F074FF02E0042C2C
:1007B00000D103E0052001F073FD82E600BFBDE833
:1007C000F0810000202D4144204465746563746904
:1007D0006F6E2D200000000041303D0041313D0092
:1007E00041323D0041333D0041343D0041353D0043
:1007F00041363D0041373D0041383D004139203D03
:10080000000000004131303D000000004131313D29
:10081000000000004131323D000000004131333D15
:100820000000000044313D0044323D0044333D00AF
:1008300044343D001CB54FF40060009001208DF859
:10084000040000208DF8060003208DF8050001202B
:100850008DF807006946044800F07EFA4FF4006105
:10086000014800F0EFFA1CBD000C024000BFFEE79B
:1008700021B1026842F00102026003E0026822F046
:100880000102026070470000016821F0010101606F
:100890000021016041608160C160016121214161ED
:1008A0004A49884204D13D21484A103A91608CE07F
:1008B00046491831884205D14FF47461434A103AD1
:1008C000916082E041493031884205D14FF4741182
:1008D0003E4A103A916078E03C494831884205D15F
:1008E0004FF07461394A103A91606EE037496031D7
:1008F000884204D13649354A103AD16065E033491F
:100900007831884204D13349304A103AD1605CE0F2
:100910002E499031884204D12F492C4A103AD16097
:1009200053E02A49A831884205D14FF03D51274A6A
:10093000103AD16049E02949884204D13D21274A33
:10094000083A116041E025491831884205D14FF439
:100950007461224A083A116037E0204930318842F8
:1009600005D14FF474111D4A083A11602DE01B495E
:100970004831884205D14FF07461184A083A116035
:1009800023E016496031884204D11149134A121FED
:1009900011601AE011497831884204D10D490F4A9B
:1009A000121F116011E00D499031884204D10A49AB
:1009B0000A4A121F116008E00849A831884204D190
:1009C0004FF03D51054A121F116070471060024000
:1009D0003D000020400F002000003D201064024038
:1009E00010B500220268134B1A40CC680B682343F1
:1009F0004C6923438C692343CC6923430C6A23430A
:100A00004C6A23438C6A23434C6B23438C6B2343F4
:100A10001A430260426922F00702D1E90B342343F2
:100A20001A4342610B6943604B6883608B68C36003
:100A300010BD00003F801CF07047000070B559E108
:100A400001F0D8FB092001F037FBB0F57A7F18DD03
:100A5000022001F031FB40F2DC51884211DD03201D
:100A600001F02AFB40F2DC5188420ADD062001F049
:100A700023FBC82805DA0A2001F01EFBB0F57A7FB7
:100A80001FDC072001F018FBB0F57A7F1EDD022085
:100A900001F012FB40F2DC51884217DD032001F027
:100AA0000BFB40F2DC51884210DD0A2001F004FB10
:100AB000B0F5C87F0ADA062001F0FEFAB0F57A7FB9
:100AC00004DD8D49084600F0BFF913E1022001F072
:100AD000F3FAB0F57A7F05DC032001F0EDFAB0F50A
:100AE0007A7F1ADD052001F0E7FAB0F57A7F14DD90
:100AF0000B2001F0E1FAB0F57A7F0EDD072001F05E
:100B0000DBFAC82809DA092001F0D6FAC82804DA85
:100B10007949484200F098F9ECE0012001F0CCFA64
:100B200040F26C71884205DC042001F0C5FAB0F592
:100B3000617F15DD052001F0BFFAB0F57A7F0FDD8A
:100B4000102001F0B9FAB0F57A7F09DD0A2001F032
:100B5000B3FA642804DA0B2001F0AEFA642815DB3E
:100B6000052001F0A9FA642815DA102001F0A4FA92
:100B7000642810DA0A2001F09FFAB0F57A7F0ADDC6
:100B80000B2001F099FAB0F57A7F04DD5A4948420A
:100B900000F05AF9AEE0062001F08EFAB0F57A7F47
:100BA00014DD0A2001F088FAB0F57A7F0EDD02F03C
:100BB0004DF909E04FF41671484200F045F902F092
:100BC0003FF9322800DD00E0F4E793E0042001F073
:100BD00073FA0446012001F06FFA0546214601F040
:100BE00064FAB0F5C87F3ADA092001F065FA0446E4
:100BF000072001F061FA0546214601F056FAB0F5EA
:100C0000C87F2CDA022001F057FAB0F57A7F26DD92
:100C1000032001F051FAB0F57A7F20DD082001F0C1
:100C20004BFAB0F52F7F1ADD0C2001F045FA40F2A7
:100C3000DC51884213DD4FF4C871084600F004F916
:100C40004FF47A7001F02CFB0021084600F0FCF80C
:100C5000642001F025FB02F0C3FB002070BD0C20D6
:100C600001F02AFAB0F57A7F1ADA022001F024FAAC
:100C7000B0F57A7F14DD032001F01EFAB0F57A7F1B
:100C80000EDD02F0E3F809E04FF44871484200F04D
:100C9000DBF802F0D5F8502800DD00E0F4E729E0A9
:100CA000072001F009FAB0F5FA7F1FDA082001F0F9
:100CB00003FAB0F57A7F19DD092001F0FDF9B0F5EE
:100CC000FA7F13DA012001F0F7F978B102F0BEF8EB
:100CD0000AE04FF44871084600F0B6F802F0B0F8A8
:100CE000B0F5FA7F00DD00E0F3E703E003490846D2
:100CF00000F0AAF8A4E60000E0FCFFFFD4FEFFFF2E
:100D00001CB50220009001208DF804008DF806002B
:100D100003208DF8050001208DF807006946024880
:100D200000F01AF81CBD0000001002401CB50220A3
:100D3000009000208DF8040002208DF807000320A9
:100D40008DF8050001208DF807006946014800F084
:100D500003F81CBD00100240F0B50A460021002334
:100D6000002400BF3DE0012505FA01F3156805EAFE
:100D700003049C4234D105684F000326BE40B543AE
:100D8000056015794E00B540066835430560157954
:100D9000012D02D01579022D16D185684F0003264A
:100DA000BE40B543856055794E00B54086683543F1
:100DB0008560456801268E40B54345604568967953
:100DC0008E40B6B235434560C5684F000326BE402D
:100DD000B543C560D5794E00B540C6683543C5609A
:100DE000491C1029BFD3F0BDF0B5002300244D07E6
:100DF000ED0E02FA05F3CE1000F1200555F826504D
:100E00004E07F70E0F26BE40B543CF1000F1200667
:100E100046F82750CE1000F1200555F8265045EA37
:100E20000304CE1000F1200545F82640F0BD02462F
:100E3000002013690B400BB1012000E00020704737
:100E4000418370470183704770B504460D460648DC
:100E50000460064805602146022001F087FF29460C
:100E6000032001F083FF70BD040600200806002067
:100E700000BFFEE710B54FF4C87001F0E5F900F0CF
:100E8000B9F904213048FFF7DBFF01212E48FFF7B5
:100E9000D9FFAE2002F0B0F9202002F0ADF9102009
:100EA00002F0AAF9B02002F0A7F9C82002F0A4F9D4
:100EB000002002F0A1F9102002F09EF9402002F07B
:100EC0009BF9812002F098F9FF2002F095F9A1200A
:100ED00002F092F9A62002F08FF9A82002F08CF916
:100EE0003F2002F089F9A42002F086F9D32002F015
:100EF00083F9002002F080F9D52002F07DF9F0207E
:100F000002F07AF9D92002F077F9222002F074F980
:100F1000DA2002F071F9122002F06EF9DB2002F003
:100F20006BF9202002F068F98D2002F065F9142099
:100F300002F062F9AF2002F05FF904210248FFF7E6
:100F400081FF01F057F910BD001002401CB5402090
:100F5000009000208DF8040003208DF8050001208A
:100F60008DF8070069461948FFF7F6FE4FF4007048
:100F7000009000208DF8040003208DF8050001206A
:100F80008DF8070069461248FFF7E6FE80200090C2
:100F900000208DF8040003208DF8050001208DF855
:100FA000070069460B48FFF7D7FE4FF4005000904A
:100FB00000208DF8040003208DF8050001208DF835
:100FC000070069460448FFF7C7FE1CBD0010024039
:100FD00000040240000C02400008024010B5044624
:100FE00014B101201F4908701E48007828B31E481C
:100FF000006840B11D48006828B11D48006810B164
:101000001C480068C8B90A2001F04AF900201549B7
:1010100008701548006808B9032010BD134800681F
:1010200008B90420F9E71248006808B90120F4E77C
:101030001048006898B90220EFE70B4800680128C3
:101040000DD10A480068012809D109480068012823
:1010500005D108480068012801D102490870002024
:10106000DBE7000000000020248240421C82414255
:1010700018024242340241421CB54FF480500090A5
:1010800001208DF8040000208DF8060003208DF863
:10109000050001208DF8070069461048FFF75CFE47
:1010A0004FF400610D48FFF7CDFE4FF40060009053
:1010B00001208DF8040000208DF8060003208DF833
:1010C000050001208DF8070069460548FFF744FE3A
:1010D0004FF400610248FFF7B5FE1CBD000002405E
:1010E0000010024010B54FF4A06000F079F8012123
:1010F000084600F0A5F80121022000F0A1F8012126
:10110000042000F09DF80121082000F099F8012149
:10111000102000F095F8A82001F0A4F80F49012054
:1011200002F0CEF8FFF786FBFFF710FFFFF7A2FEF5
:1011300000F076F8532140F2E73000F09DFB01F01B
:1011400039FF532140F2E73000F0FEFC01F042FF8E
:10115000FFF792FF00F028F910BD000040420F0099
:1011600000BFFEE77047000070B5002100230F228A
:10117000C4781CB3174C246804F4E064C4F5E0643C
:10118000C4F30721C1F10404E3B20A4144789C404E
:10119000E1B28478144021430C07210E0E4C0578EF
:1011A0006155047804F01F050124AC4005786D11E9
:1011B000AD0005F1E025C5F8004109E0047804F030
:1011C0001F050124AC40054D0678761145F82640F0
:1011D00070BD00000CED00E000E400E080E100E004
:1011E00002490143024A1160704700000000FA05FD
:1011F0000CED00E01CB53F20009001208DF80400AC
:1012000000208DF8060003208DF8050001208DF8E0
:10121000070069460148FFF79FFD1CBD0010024012
:1012200010B5532140F2FB3000F050FB532140F247
:10123000FB3000F0D9FB012001F0EAFC10BD704743
:1012400029B1064A12680243044B1A6004E0034ABB
:1012500012688243014B1A60704700003038024028
:1012600029B1064A12680243044B1A6004E0034A9B
:1012700012688243014B1A607047000040380240F8
:1012800029B1064A12680243044B1A6004E0034A7B
:1012900012688243014B1A607047000044380240D4
:1012A00029B1064A12680243044B1A6004E0034A5B
:1012B00012688243014B1A607047000024380240D4
:1012C000F0B5002100220024022500260223324F1F
:1012D0003F6807F00C0121B1042905D0082937D156
:1012E00005E02E4F076036E02D4F076033E02A4FB0
:1012F0003F1F3F68C7F38056274F3F1F3F6807F0E7
:101300003F036EB1264FB7FBF3F7DFF88CC0ACF1AB
:10131000040CDCF800C0CCF3881C07FB0CF40CE0D8
:101320001E4FB7FBF3F7DFF870C0ACF1040CDCF82C
:1013300000C0CCF3881C07FB0CF4174F3F1F3F681D
:10134000C7F301477F1C7D00B4FBF5F7076002E09F
:10135000124F076000BF00BF0F4F3F6807F0F0015A
:101360000909104F7A5C0768D74047600A4F3F6809
:1013700007F4E051890A0B4F7A5C4768D7408760D1
:10138000054F3F6807F46041490B064F7A5C476898
:10139000D740C760F0BD0000083802400024F400C8
:1013A00000127A001C06002000B59BB001218805C0
:1013B000FFF746FF3F20199003208DF868000020BA
:1013C0008DF86B0019A9A648FFF7C6FCFF201990FD
:1013D00003208DF8680000208DF86B0019A9A14842
:1013E000FFF7BAFC032019908DF8680000208DF8F3
:1013F0006B0019A99C48FFF7AFFC4FF28070199061
:1014000000208DF8680003208DF8690001208DF818
:101410006B0019A99548FFF79FFC4FF604401990FF
:1014200000208DF8680003208DF8690001208DF8F8
:101430006B0019A98C48FFF78FFC40F21F701990C0
:1014400000208DF8680003208DF8690001208DF8D8
:101450006B0019A98648FFF77FFC4FF400401990F4
:1014600000208DF8680003208DF8690001208DF8B8
:101470006B0019A97B48FFF76FFC4FF4805019905F
:1014800000208DF8680003208DF8690001208DF898
:101490006B0019A97248FFF75FFC01210802FFF7F2
:1014A000FFFE00214FF48070FFF7FAFE7148FFF74E
:1014B000EBF90020009070480190704802900020E5
:1014C000039010200490002005904FF48060069057
:1014D00040000790800008904011099040020A9057
:1014E00000200B9001200C9000200D900E9069467A
:1014F0006048FFF775FA01215E48FFF7B9F901214D
:101500000802FFF7BDFE01210802FFF7C9FE002116
:101510004FF48070FFF7C4FEFEF734FF00201590F3
:1015200017904FF4803016900020189015A8FEF701
:10153000FBFE00200F9001208DF840008DF8410047
:1015400000201190139010208DF850000FA94A48E8
:101550004C38FEF723FF03230122002146484C3874
:10156000FEF746FF03230222012143484C38FEF7D1
:101570003FFF03231A4602213F484C38FEF738FF4D
:101580000323042219463C484C38FEF731FF03235D
:101590000522042138484C38FEF72AFF032306228F
:1015A000052135484C38FEF723FF03230722062187
:1015B00031484C38FEF71CFF0323082207212E4830
:1015C0004C38FEF715FF0323092208212A484C381E
:1015D000FEF70EFF03230A22092127484C38FEF7A5
:1015E00007FF03230B220A2123484C38FEF700FF94
:1015F00003230C220B2120484C38FEF7F9FE03236D
:101600000D220C211C484C38FEF7F2FE03230E225B
:101610000D2119484C38FEF7EBFE03230F220E2153
:1016200015484C38FEF7E4FE032310220F21124820
:101630004C38FEF7DDFE01210F484C38FEF797FECF
:1016400001210D484C38FEF787FE01210A484C382D
:10165000FEF75EFE08484C38FEF726FF1BB000BDC3
:101660000008024000000240000402400010024056
:10167000000C0240106402404C2001402C06002067
:10168000704700000CB500200190009034480068BD
:1016900040F480303249086000BF3148006800F4EF
:1016A000003000900198401C0190009818B90198F2
:1016B000B0F5A04FF1D12A48006800F4003010B115
:1016C0000120009001E0002000900098012846D100
:1016D00023484030006840F0805021494031086084
:1016E0002048006840F440401E4908601C4808300B
:1016F00000681B49083108600846006840F4004053
:1017000008600846006840F4A05008601648091FA9
:101710000860081F006840F08070091F086000BF63
:101720000F48006800F000700028F9D040F2057002
:101730000E4908600A480830006820F00300084994
:10174000083108600846006840F00200086000BFE9
:1017500003480830006800F00C000828F8D10CBDE0
:10176000003802400070004008544007003C02402E
:10177000042808D14FF0E021096941F004014FF03D
:10178000E022116107E04FF0E021096921F0040136
:101790004FF0E022116170477047000010B5154806
:1017A000006840F47000134908601348006840F076
:1017B00001001149086000200F49083108600E48F7
:1017C00000680E4908400C4908600D48091D086072
:1017D000081F006820F48020091F086000200649C7
:1017E0000C310860FFF74EFF4FF00060014980396F
:1017F000086010BD88ED00E000380240FFFFF6FEF3
:101800001030002410B50121880700F0E2F901280A
:1018100023D114480078012810D113480088401CB7
:101820001149088008460088C82807DB01200F49B5
:10183000086000200B4908700B4908800C4800889C
:10184000401C0B49088008460088B0F57A7F04D117
:1018500008480088401C074908800121880700F0DB
:10186000A9F910BD0006002002060020AC8241420A
:10187000F8050020FA0500207FB505460C46012139
:101880000846FFF7EDFC0295ADF804400020ADF8E6
:101890000600ADF80C0001A94FF0804000F008FBF5
:1018A00001221146900700F0A5F91C208DF80000D8
:1018B00001208DF8010003208DF8020001208DF831
:1018C00003006846FFF750FC7FBD000030B58BB0C9
:1018D00004460D4601210220FFF7C2FC0222062128
:1018E0003F48FFF781FA022207213D48FFF77CFAC3
:1018F000022208213A48FFF777FA022209213848E4
:10190000FFF772FA4FF47070099002208DF82800EA
:1019100003208DF8290000208DF82A0001208DF881
:101920002B0009A92E48FFF717FAA8B2ADF8180046
:101930000020ADF81A000794ADF8200006A9294848
:1019400000F0B6FA6020ADF804000120ADF8060002
:101950000020ADF8100001A9224800F055F96020E0
:10196000ADF804000120ADF806000020ADF810002D
:1019700001A91C4800F090F96020ADF80400012096
:10198000ADF806000020ADF8100001A9154800F0E0
:10199000E3F96020ADF804000120ADF80600002056
:1019A000ADF8100001A90F4800F030FA08210D48E9
:1019B00000F068F908210B4800F0C0F90821094837
:1019C00000F01AFA0821074800F05CFA01210548E6
:1019D00000F0E4F80121034800F0EFF80BB030BD4F
:1019E000000802400004004030B58BB004460D46AC
:1019F00001210420FFF734FC02220C213F48FFF7AD
:101A0000F3F902220D213D48FFF7EEF902220E21E3
:101A10003A48FFF7E9F902220F213848FFF7E4F9C5
:101A20004FF47040099002208DF8280003208DF8B3
:101A3000290000208DF82A0001208DF82B0009A92B
:101A40002E48FFF789F9A8B2ADF818000020ADF8CC
:101A50001A000794ADF8200006A9294800F028FADA
:101A60006020ADF804000120ADF806000020ADF8BC
:101A7000100001A9224800F0C7F86020ADF804006A
:101A80000120ADF806000020ADF8100001A91C48A7
:101A900000F002F96020ADF804000120ADF8060066
:101AA0000020ADF8100001A9154800F055F960209C
:101AB000ADF804000120ADF806000020ADF81000DC
:101AC00001A90F4800F0A2F908210D4800F0DAF84A
:101AD00008210B4800F032F90821094800F08CF980
:101AE0000821074800F0CEF90121054800F056F81A
:101AF0000121034800F061F80BB030BD000C02403A
:101B00000008004010B501210C4800F062F80128DF
:101B10000ED10B480088401C0949088008460088FF
:101B2000B0F57A7F04D107480088401C0549088039
:101B30000121024800F03EF810BD0000000C0040FA
:101B4000FC050020FE0500207FB505460C4601215E
:101B50000820FFF785FB0295ADF804400020ADF8A2
:101B60000600ADF80C0001A90B4800F0A1F9012214
:101B70001146094800F03EF832208DF8000001209F
:101B80008DF8010003208DF8020001208DF803007C
:101B90006846FFF7E9FA7FBD000C004021B10288DA
:101BA00042F08002028004E002884FF67F731A4000
:101BB00002807047CA430282704721B1028842F016
:101BC0000102028004E002884FF6FE731A40028090
:101BD000704730B50246002000230024158A05EA2C
:101BE0000103958905EA010413B10CB1012000E05D
:101BF000002030BD1AB183890B43838102E08389C1
:101C00008B4383817047000070B5002400220023BD
:101C1000058C4FF6FE7635400584028C8388048B54
:101C20004FF68F752C40B51E2C400D882C43751E29
:101C30002A408D892A434D882A43104DA84202D05C
:101C40000F4DA84213D14FF6F7752A40CD892A438C
:101C50004FF6FB752A408D882A434FF6FF652B40CF
:101C60004FF6FF552B400D8A2B434D8A2B43838023
:101C700004838D684563028470BD0000000001404C
:101C8000000401400A460021018B4FF6F77319400A
:101C9000114301837047000070B500240022002327
:101CA000058C4FF6EF7635400584028C8388048BD3
:101CB00048F6FF752C404FF6FF452C400D884FF637
:101CC000FF7606EA05252C434FF6DF752A408D89FD
:101CD00006EA05152A434D8806EA05152A43154DDF
:101CE000A84202D0144DA8421DD14FF67F752A405C
:101CF000CD894FF6FF7606EA05152A434FF6BF75E4
:101D00002A408D8806EA05152A434FF6FF352B40F9
:101D10004FF2FF752B400D8A06EA85052B434D8A4D
:101D200006EA85052B43838004838D6885630284DE
:101D300070BD000000000140000401400A4600217F
:101D4000018B4FF2FF7319404FF6FF7303EA022332
:101D5000194301837047000070B50024002200235E
:101D6000058C4FF6FF6635400584028C8388848B92
:101D70004FF68F752C404FF6FC752C400D882C4388
:101D80004FF6FF552A408D894FF6FF7606EA052566
:101D90002A434D8806EA05252A43154DA84202D05C
:101DA000144DA8421DD14FF2FF752A40CD894FF640
:101DB000FF7606EA05252A434FF6FF352A408D882F
:101DC00006EA05252A434EF6FF752B404DF6FF75B2
:101DD0002B400D8A06EA05152B434D8A06EA0515A8
:101DE0002B43838084838D68C563028470BD0000AB
:101DF00000000140000401400A460021818B4FF69B
:101E0000F7731940114381837047000070B50022B9
:101E100000230024058C4EF6FF7635400584038CA4
:101E20008488828B48F6FF752A404FF6FF452A408A
:101E30000D884FF6FF7606EA05252A434DF6FF7515
:101E40002B408D8906EA05352B434D8806EA05357A
:101E50002B430A4DA84202D0094DA84208D14BF6A7
:101E6000FF752C400D8A4FF6FF7606EA85152C4348
:101E7000848082838D680564038470BD0000014006
:101E8000000401400A460021818B4FF2FF73194084
:101E90004FF6FF7303EA02231943818370474163BE
:101EA000704781637047C1637047016470470000E9
:101EB00000220288184B98420ED0184B98420BD043
:101EC000B0F1804F08D0164B984205D0154B984280
:101ED00002D0154B984204D14FF68F731A404B88AD
:101EE0001A43124B984207D0114B984204D04FF638
:101EF000FF431A400B891A4302804B68C3620B8868
:101F00000385054B984202D0044B984201D18B7A4D
:101F100003860123838270470000014000040140D2
:101F20000004004000080040000C00400010004089
:101F30000014004010B50C2000F0BEF8B0F5FA6FA8
:101F40000EDD00F08FFE0A2000F0AAF90C2000F050
:101F5000B3F8B0F5FA6F05DD00F07EFE012010BD8C
:101F60000020FCE700BFFAE7704721B1828942F404
:101F70000052828104E082894DF6FF731A4082810B
:101F80007047F0B50346002400260025002040F6E7
:101F90006A17B94200D100BF1846C1F3421401F0DC
:101FA0001F06012707FA06F5012C01D10C3004E0C9
:101FB000022C01D1103000E014301AB107682F4311
:101FC000076002E00768AF430760F0BD2DE9FF47F7
:101FD00005460E460024A14600BFA046B08900B1C8
:101FE00000BF2C8A24F44054F08804432C82AC892E
:101FF00041F20C608443B0883189084371890843F9
:102000000443AC81AC8A24F44074B0890443AC82AC
:102010006846FFF755F92048854202D01F4885429F
:1020200002D1DDF80C9001E0DDF80890A88900F4F9
:10203000004040B109EBC90000EB091031684900CC
:10204000B0FBF1F707E009EBC90000EB09103168BC
:102050008900B0FBF1F76420B7FBF0F00401200920
:10206000642101FB1078A88900F4004040B13220BF
:1020700000EBC800B0FBF1F000F00700044308E0FB
:10208000322000EB08106421B0FBF1F000F00F00EB
:1020900004432C81BDE8FF8700100140001401407B
:1020A00000BFFEE7014600BF70470246501A01D448
:1020B000501A7047881AFCE770B504460025102CAA
:1020C00029D2DFE804F0080A0C0E10121416181AB0
:1020D0001C1E202224260A251DE00B251BE00C25B2
:1020E00019E00D2517E0002515E0012513E0022574
:1020F00011E003250FE004250DE005250BE0062582
:1021000009E0072507E00E2505E00F2503E0082577
:1021100001E0092500BF00BF284600F081FB02480E
:1021200030F8150070BD00004C06002070B5002589
:102130004FF4966601240AE0E0B2FFF7BDFFB0421B
:1021400004DDE0B2FFF7B8FF06462546641C0B2C01
:10215000F2DDAAB20121042000F0B2FA284670BDD7
:1021600010B500F073FE09E006490846FEF76CFE64
:1021700000F066FEC82800DC00E000E0F4E700BFE5
:1021800010BD000070FEFFFF10B500F05FFE09E01B
:1021900006494842FEF758FE00F052FEC82800DC0F
:1021A00000E000E0F4E700BF10BD000018FCFFFFF6
:1021B00010B500F04BFE0AE04FF47A714842FEF78A
:1021C00043FE00F03DFEC82800DC00E000E0F3E73D
:1021D00000BF10BD10B500F001F810BD012003498B
:1021E00008700020024908607047000000060020C7
:1021F000AC82414270B504211248FEF721FE012154
:102200001048FEF71FFE002414E004F1B00000F0B7
:10221000F3FF002000F0F0FF102000F0EDFF00259C
:1022200004E0002001F01AF8681CC5B2802DF8DB2C
:10223000601CC4B2082CE8DB04210248FEF702FE51
:1022400070BD000000100240002107E0002200E005
:10225000521C41F27C539A42FADB491C8142F5DB65
:102260007047000010B504466FF00400FFF780FAD5
:10227000E11704EB5171C1F3C701074A1170104611
:10228000007800EB4001C1EBC0104FF6FF7101EA8E
:10229000C0000249088010BD180600201A06002060
:1022A00070B504464FF4077094FBF0F0C6B24FF4DB
:1022B000077094FBF0F100FB114085B205E04FF48C
:1022C000077000F009F8701EC6B2002EF7D115B1E4
:1022D000284600F001F870BD0146114A12884A43B1
:1022E0004FF0E0235A6100229A611A46126942F0C7
:1022F00001021A6100BF4FF0E022106900F00102F4
:102300001AB100F48032002AF5D04FF0E0221269B1
:1023100022F001024FF0E0231A6100229A61704717
:102320001A060020014600201A2915D2DFE801F024
:102330000D151D262FE938414A535C656E7780895B
:10234000929AA3ACB4BCC5CED7E06F4A1268012AFA
:1023500001D1012000E00020D3E06C4A1268012A7C
:1023600001D1012000E00020CBE0684A121D126874
:10237000012A01D1012000E00020C2E0634A0832B6
:102380001268012A01D1012000E00020B9E05F4A73
:102390000C321268012A01D1012000E00020B0E0D7
:1023A0005A4A14321268012A01D1012000E00020AB
:1023B000A7E0564A18321268012A01D1012000E034
:1023C00000209EE0514A1C321268012A01D10120EE
:1023D00000E0002095E04D4A20321268012A01D128
:1023E000012000E000208CE0474A20321268012AD8
:1023F00001D1012000E0002083E0434A243212682A
:10240000012A01D1012000E000207AE03E4A283272
:102410001268012A01D1012000E0002071E03A4A4F
:102420002C321268012A01D1012000E0002068E06E
:10243000354A30321268012A01D1012000E0002023
:102440005FE0314A34321268012A01D1012000E0F4
:10245000002056E02E4A1268012A01D1012000E036
:1024600000204EE02A4A121D1268012A01D10120E3
:1024700000E0002045E0264A08321268012A01D116
:10248000012000E000203CE0224A1268012A01D12C
:10249000012000E0002034E01F4A1268012A01D127
:1024A000012000E000202CE0194A203A1268012A9D
:1024B00001D1012000E0002023E0154A1C3A1268F7
:1024C000012A01D1012000E000201AE0104A183A48
:1024D0001268012A01D1012000E0002011E00C4A1D
:1024E000143A1268012A01D1012000E0002008E01E
:1024F000074A103A1268012A01D1012000E00020A9
:1025000000BF00BF70470000088240421C024242E8
:10251000208241423C024042300241422DE9F047D4
:102520008EB082460E4615460024A8E0285DB028ED
:1025300037DB285DF72834DC601C285CA12830DB01
:10254000285DB0385E2110FB01F050490860601C26
:10255000285C00F2AD20096808444C490860084630
:1025600000684001086008460068C0F30747084655
:102570000088C0F30728084690F80090202006AB9A
:102580004A4641460090384600F010FB06AA314604
:10259000504600F0CDF8A01CC4B206F11000C6B23F
:1025A0006DE0285DA12836DB285DA32833DC601CA4
:1025B000285CA1282FDB285DA1385E2110FB01F0EB
:1025C00032490860601C285CA138096808442F491A
:1025D0000860084600684001086008460068C0F3CB
:1025E000074708460088C0F30728084690F800907F
:1025F000202006AB4A4641460090384600F0D6FA05
:1026000006AA3146504600F093F8A01CC4B206F169
:102610001000C6B233E0285D20282EDB285D7E281E
:102620002BDC285D20381949086008460068000145
:1026300008600846006816490844144908600846BE
:102640000068C0F3074708460088C0F3072808461B
:1026500090F80090102002AB4A4641460090384660
:1026600000F0A4FA02AA3146504600F08FF8601C30
:10267000C4B206F10800C6B201E0601CC4B2285D15
:1026800000283FF753AF0EB0BDE8F087F4050020F7
:1026900080CF0300F8B505460E4614460A2094FB89
:1026A000F0F100FB11403030C0B28DF80000002086
:1026B0008DF801006A4631462846FFF72FFFF8BD26
:1026C0007CB505460E4614464FF47A7094FBF0F044
:1026D0003030C0B28DF800004FF47A7094FBF0F106
:1026E00000FB1140642190FBF1F03030C0B28DF856
:1026F0000100642094FBF0F100FB11400A2190FBE3
:10270000F1F03030C0B28DF802000A2094FBF0F1F5
:1027100000FB11403030C0B28DF8030000208DF86E
:1027200004006A4631462846FFF7F8FE7CBD0000EB
:102730002DE9F04104460E46154604211248FEF7E5
:102740007FFB01211048FEF77DFB4FF0020812E0ED
:10275000E1B2F0B200F06EFA002705E0287800F050
:102760007DFD6D1C781C87B2102FF7DB641CA8F16F
:1027700001001FFA80F8B8F1000FE9DC04210248DB
:10278000FEF760FBBDE8F081001002402DE9F0414A
:1027900004460E46154604211048FEF751FB4FF043
:1027A000020812E0E1B2304600F044FA002705E0EA
:1027B000287800F053FD6D1C781C87B2082FF7DBDA
:1027C000641CA8F101001FFA80F8B8F1000FE9DCE1
:1027D00004210248FEF736FBBDE8F08100100240FC
:1027E00010B500F033FB0BE04FF42F714842FEF7B9
:1027F0002BFB00F025FBB0F5C87F00DC00E000E01B
:10280000F2E700BF10BD00000120014908607047D9
:10281000AC0242420020014908607047AC024242CB
:1028200070B52DED088B0446194830F8140019498D
:1028300021F81400084630F81460174830F8145096
:10284000304600F0E2FE41EC1B0B9FED140B53EC05
:10285000102B00F0EDFE41EC190B284600F0D5FEE0
:1028600041EC1B0B9FED0F0B53EC102B00F0E0FE27
:1028700041EC1A0B53EC192B00F0F2FD41EC180B54
:1028800000F096FE024921F81400BDEC088B70BDE3
:102890004C0600206C0600202C060020989999997F
:1028A0009999C93F9A9999999999E93F10B5FFF774
:1028B0003DFC0C2872D2DFE800F0DB06192D4153F5
:1028C000667A8DA1B4C700F0C1FA0CE000F020F9DF
:1028D00018B900F0B5FA502800DD05E04FF42F716B
:1028E0004842FEF7B1FAF1E700BFC7E000F0AEFAE8
:1028F0000DE000F00DF920B900F0A2FAB0F5967FD6
:1029000000DD05E04FF42F710846FEF79DFAF0E771
:1029100000BFB3E000F09AFA0DE000F0F9F820B93A
:1029200000F08EFAB0F5967F00DD05E04FF42F71D0
:102930000846FEF789FAF0E700BF9FE000F086FA4C
:102940000BE000F0E5F818B900F07AFA502800DD45
:1029500004E04B494842FEF777FAF2E700BF8DE00A
:1029600000F074FA0CE000F0D3F818B900F068FA3F
:10297000462800DD05E0424964394842FEF764FA22
:10298000F1E700BF7AE000F061FA0DE000F0C0F876
:1029900018B900F055FA642801DD06E068E038490E
:1029A00064394842FEF750FAF0E700BF66E000F0F5
:1029B0004DFA0CE000F0ACF818B900F041FA6428C8
:1029C00000DD05E02E4964394842FEF73DFAF1E7A3
:1029D00000BF53E000F03AFA0DE000F099F820B99A
:1029E00000F02EFAB0F5C87F00DD05E025494FF470
:1029F0006170FEF729FAF0E700BF3FE000F026FA29
:102A00000CE000F085F818B900F01AFA642800DD2F
:102A100005E04FF448714842FEF716FAF1E700BFAF
:102A20002CE000F013FA0CE000F072F818B900F096
:102A300007FA642800DD05E04FF448714842FEF7CC
:102A400003FAF1E700BF19E000F000FA0DE000F032
:102A50005FF818B900F0F4F9642800DD06E04FF4DF
:102A6000487107486430FEF7EFF9F0E700BF05E072
:102A70004FF4C8710846FEF7E7F900BF00BF10BD6C
:102A800044FDFFFF18FCFFFF10B500F0DFF908E080
:102A900006490846FEF7D8F900F0D2F9C82800DD4B
:102AA00000E0F5E700BFFFF75BFB10BD18FCFFFF80
:102AB00070B5002420211548FEF7C4F900BFFEF7C9
:102AC00035F900251CE002211048FEF7BBF900BFD4
:102AD00020210E48FEF7B4F900BF6006040E022163
:102AE0000A48FEF7A4F918B1601CC4B200BF01E0A7
:102AF000E4B200BF20210548FEF7A4F9681CC5B266
:102B0000082DE0DBFEF7FCF8204670BD0010024007
:102B100010B50120FFF706FC012804D00220FFF7C2
:102B200001FC012833D10120FFF7FCFB01280DD166
:102B30000220FFF7F7FB48B918A201210220FFF796
:102B4000EDFCFFF7A1FFFFF71FFB16E00120FFF7E9
:102B5000E9FB70B90220FFF7E5FB012809D111A2BA
:102B600001210220FFF7DAFCFFF78EFFFFF720FBC1
:102B700003E0FFF789FFFFF733FE4FF4C871084603
:102B8000FEF762F96420FFF78BFB012010BD4FF4C4
:102B9000C8710846FEF758F90020F7E72D2D2DD70C
:102BA000F3B2E000D3D2B2E02D2D2D002DE9F04795
:102BB00080460D4616461F46DDF820900121134839
:102BC000FEF73EF904211148FEF73CF920210F4899
:102BD000FEF736F9032000F073F9404600F070F973
:102BE000284600F06DF9304600F06AF9002404E050
:102BF000FFF75EFF3855601CC4B24C45F8DB01217D
:102C00000248FEF71FF9BDE8F087000000100240FF
:102C100010B50446012C04D101210548FEF7CDFF73
:102C200004E01CB900210248FEF7C7FF10BD0000F8
:102C30000008004070B504460D4605F1B00000F0F4
:102C4000DBFA102141EA141000F0D6FA04F00F006C
:102C500000F0D2FA70BD0000012001490860704701
:102C6000B00240420020014908607047B002404273
:102C700000BFFEF737FA00F081F95BE00020FEF7B5
:102C8000ADF92D490870084600782C4908702CA22F
:102C900001210020FFF742FC2CA201210220FFF7B6
:102CA0003DFC2DA201210420FFF738FC2DA20121BB
:102CB0000620FFF733FC0020FEF790F91E4908704C
:102CC0000846007818B1084600781C4908701B486F
:102CD0000078012802D100F08FF92BE01748007826
:102CE00002280BD1FFF786FA00F07AFB05E0FFF728
:102CF0000FFF00F0B5F8FFF7D9FDF8E70F480078AF
:102D000003280FD1FFF776FA0BE0FFF77DFD4FF4B4
:102D10007A70FFF7C5FAFFF77DFD4FF47A70FFF781
:102D2000BFFAF2E705480078042803D1FFF762FAFA
:102D300000F042FAA2E700000C0600200D06002079
:102D400031A1A2BCECB2E2C4A3CABD0032A1A2D69A
:102D5000F7B3CCD0F200000033A1A2B2E2CAD4B3E0
:102D6000CCD0F20034A1A2B7B5BBD80070B50546EF
:102D70000C46B4F57A7F01DD4FF47A7414F57A7F4E
:102D800000DA2C4C9DB9002C08DB21462A48FFF7BD
:102D900086F800212848FFF784F849E06142264878
:102DA000FFF77FF800212448FFF779F840E0012D74
:102DB00013D1002C08DB21461F48FFF774F80021CF
:102DC0001D48FFF772F833E061421B48FFF76DF8CA
:102DD00000211948FFF767F82AE0022D13D1002CD3
:102DE00008DB21461548FFF75AF800211348FFF782
:102DF00058F81DE061421148FFF753F800210F48D1
:102E0000FFF74DF814E0032D12D1002C08DB21460A
:102E10000A48FFF748F800210848FFF746F807E09E
:102E200061420648FFF741F800210448FFF73BF8EC
:102E300070BD000018FCFFFF0008004000040040C7
:102E40000148008870470000F80500200020024972
:102E50000880024908807047F8050020FA05002024
:102E600010B5FFF7C7F9012421E0E0B2FFF724F91C
:102E7000B0F57A7F1ADD611CC8B2FFF71DF9B0F515
:102E80007A7F13DD211DC8B2FFF716F9B0F57A7FFE
:102E90000CDD09A201210020FFF740FB00210846BC
:102EA000FDF7D2FFFDF7CAFD012010BD641C072C01
:102EB000DBDD0020F9E70000B5F4CCA8000000003D
:102EC00070B5044600251BE004F0800028B11021F5
:102ED0000D48FDF7B7FF00BF04E010210A48FDF7D9
:102EE000AFFF00BF6006040E20210748FDF7A8FFD2
:102EF00000BF20210448FDF7A5FF00BF681CC5B234
:102F0000082DE1DB70BD00000010024070B50546E1
:102F10000C46012D23D0022D17D0032D0BD0042DEC
:102F200027D104EB440000EB0410C0F57B6112488C
:102F3000FEF7B5FF1DE004EB440000EB0410C0F504
:102F40007B610D48FEF7ADFF13E004EB440000EB9E
:102F50000410C0F57B610848FEF7A5FF09E004EB0B
:102F6000440000EB0410C0F57B610348FEF79DFFB1
:102F700000BF00BF70BD00000008004010B50AA2ED
:102F800001210220FFF7CAFAFFF724F9FFF76AFED2
:102F90004FF49670FFF784F9FFF71CF9FFF75CFE1A
:102FA000FFF728F910BD00002020202077656C6312
:102FB0006F6D650010B50020044908800449088041
:102FC00001218807FEF7F9FD10BD0000F80500207B
:102FD000FA05002010B50020044908800449088043
:102FE00001210448FEF7E9FD10BD0000FC050020AA
:102FF000FE050020000C004070B50025FFF7FAF830
:10300000A3E053A201210020FFF788FA54A2012176
:103010000220FFF783FA55A201210420FFF77EFA70
:1030200055A201210620FFF779FA0020FDF7D6FF0F
:103030000546012D04D1FDF73DFAFFF7DBF884E0EA
:10304000022D29D127E0FFF7D5F8002421E04CA27A
:1030500001210020FFF762FA4CA201210220FFF7B4
:103060005DFAA2B21E210420FFF72AFB21460120AF
:10307000FFF74CFF21460220FFF748FF6420FFF7CF
:103080000FF9FEF757FF012803D1641C6420FFF7F6
:1030900007F9B42CDBDDD6E7032D51D14FE0FFF764
:1030A000A9F8002448E03CA201210020FFF736FAED
:1030B0003CA201210220FFF731FA002C0ADB3CA2DE
:1030C00014210420FFF72AFAA2B21E210420FFF7E0
:1030D000F7FA0AE037A214210420FFF71FFA604232
:1030E00082B21E210420FFF7EBFA21462046FDF7AD
:1030F000ABFE0020FDF772FF0546012D07D1B4F5A8
:103100007A7F04DA32346420FFF7CAF813E0022D24
:1031100007D114F57A7F04DD323C6420FFF7C0F854
:1031200009E0032D04D164426420FFF7B9F802E0FE
:10313000042D00D107E00025B4F57A7FB3DDAEE7BA
:10314000042D02D100BF002500E05AE700BF70BD8A
:1031500031A1A2B4ABB8D0C6F7BCECB2E20000001B
:1031600032A1A2B6E6BBFABCECB2E20033A1A2B532
:10317000E7BBFABCECB2E20034A1A2B7B5BBD80001
:10318000B4A5C3FED2D4D4F6BCD30000B6E6BBFAD5
:1031900050574D3A00000000B0B4BCFCD2D4B8C4C3
:1031A000B1E40000B5E7BBFAD7AACBD93A000000DA
:1031B000200000002D00000010B500240AA200210C
:1031C0000220FFF7ABF90CE00020FDF707FF0446F3
:1031D000022C06D14FF47A70FFF762F8FFF70AF875
:1031E00000E0F1E700BF10BD546F756368205365C0
:1031F0006E736F720000000070B504460821164817
:10320000FDF71EFE04211448FDF71AFE002517E005
:1032100020211148FDF714FE04F0800020B1102198
:103220000D48FDF70FFE03E010210B48FDF708FEE7
:1032300020210948FDF706FE00BF6400681CC5B2E6
:10324000082DE5DB08210448FDF7FCFD04210248B8
:10325000FDF7F8FD70BD00000010024070B5044697
:1032600008211648FDF7EEFD04211448FDF7E8FD9E
:10327000002517E020211148FDF7E2FD04F0800051
:1032800020B110210D48FDF7DDFD03E010210B48B2
:10329000FDF7D6FD20210948FDF7D4FD00BF6400ED
:1032A000681CC5B2082DE5DB08210448FDF7CAFDFE
:1032B00004210248FDF7C6FD70BD00000010024069
:1032C00030B587B005460C460121C804FDF7C8FF9C
:1032D00001214804FDF7C4FF01218804FDF7C0FF68
:1032E000072206213A48FDF77FFD0722114638489C
:1032F000FDF77AFDC020059002208DF818008DF8AA
:10330000190000208DF81A0001208DF81B0005A976
:103310002F48FDF721FD012D15D101940020ADF8B6
:103320000800ADF80A00ADF80C00ADF810000C2054
:10333000ADF80E0001A92748FEF748FE01212548F7
:10334000FEF713FE2EE0022D15D101940020ADF8FA
:103350000800ADF80A00ADF80C00ADF810000C2024
:10336000ADF80E0001A91C48FEF730FE01211B48F4
:10337000FEF7FBFD16E0032D14D101940020ADF8FB
:103380000800ADF80A00ADF80C00ADF810000C20F4
:10339000ADF80E0001A90F48FEF718FE01210E48F6
:1033A000FEF7E3FD012240F225510A48FEF7E9FD50
:1033B00027208DF8000003208DF8010001208DF8F2
:1033C00002008DF803006846FDF7CEFE07B030BD61
:1033D000000402400048004000440040004C00400F
:1033E00010B5FEF707FF18A205210220FFF796F897
:1033F0004FF47A70FEF754FFFEF7FCFE15A205218C
:103400000220FFF78BF815490846FDF71DFD4FF424
:103410007A70FEF745FF00210846FDF715FD642090
:10342000FEF73EFF4FF42F714842FDF70DFD4FF4BC
:10343000C870FEF735FF4FF4C8710846FDF704FD6C
:103440006420FEF72DFF10BD5374616E6420427935
:1034500000000000C9CFCCA8000000007CFCFFFFEA
:1034600010B591EA030F48BF83F0004300F1E681F5
:10347000841A71EB030C05D2121943EB0C03001BE9
:1034800061EB0C01DFF824E14FEA1154A4EB135C6B
:103490001EEA430F18BF9EEA445F73D023EA0E036F
:1034A000DCF1200E21EA045143F4801332D322FAD6
:1034B0000CFE10EB0E0023FA0CFE41EB0E01CCF1DA
:1034C000200E03FA0EFE10EB0E0051F10001B1F5D3
:1034D000801FCCF1200E32D201EB045112FA0EF211
:1034E000BDE8104058BF7047401C38BF5FEA420239
:1034F00018BF7047002814BF20F0010041F10001FF
:103500004FEA410313F5001F38BF7047A1F1C041D6
:1035100000F086B9012A43EB0302ACF1200CDCF188
:103520001F0E32BF4FF0000E23FA0CF310EB030016
:1035300041EB0451B4EB115FD0D0A1EB045101F584
:10354000801149085FEA300001EB04510ED350F1BD
:10355000000038BF12FA0EFE08D1BDE81040C9E7DE
:10356000401C38BF5FEA4202CAD1C3E7BDE8104041
:103570004FEA410313F5001F38BF7047A1F1C04166
:1035800000F04EB99EEA445F08D011EA5E0FBDE834
:10359000104004BF01F0004100207047BDE810401A
:1035A00070B500F0EFF800BF64FBBE3E0000E0FF26
:1035B0004FEA1153A3F58063D3F11E03A8BFD3F1E3
:1035C000200C08DB4FF0004242EAC12252EA50527E
:1035D00032FA03F0704709420BD4102BC4BF00200D
:1035E000704703F5787CBCF1FF3F05D04FF0FF300A
:1035F00070474FF00000704770B500F0C3F800BF8F
:103600004992248000207047F0E7B0FA80F310FA66
:1036100003F10AD0C3F11D0303F580634FEA415063
:103620004FEA035202EBD12170474FF00000704780
:10363000DFF848C170B51CEA111E1EBF1CEA131545
:103640009EEA0C0F95EA0C0F00F06F8081EA0304EC
:1036500023EA4C134EEAD47E21EA4C1141F4801146
:1036600043F48013AE44A1FB024CA0FB0365AEF112
:103670007F7E361955EB0C05A1FB034C4CF1000382
:10368000A0FB021C16EB0C06654153F10003094236
:1036900018BF46F0010613F4007F0BD14FEA033147
:1036A0004FEA0530340341EA155140EA16506FF0F5
:1036B00003020AE04FEAC3214FEAC520F40241EABF
:1036C000555140EA56506FF0020202EB2E4201EBD8
:1036D000025585EACE710AD05FEA440C18BF24F087
:1036E000004450F1000041F1000120EAD47040F2A2
:1036F000FE7C624500D270BDA84214BF4FF08044EA
:103700004FF04044002E08BF0024BEF1806FA8BFD8
:10371000A1F1C041BDE8704080F282804FF000000E
:1037200001F1C04101F0004170479EEA0C0F0CEA24
:10373000131518BF95EA0C0F06D04FF0000081EA70
:10374000030E0EF0004170BD00F01CF88900013E30
:1037500000F007B800F009B84FEA430C5FEA5C5C80
:1037600008D081EA030100F05BB84FEA410C5FEA40
:103770005C5CF6D14FF00000014970470000FF0784
:103780000000F87F0EF1020E2EF0030E5EF8046BBF
:10379000364205D4012A43EB030515F5001F12D864
:1037A000012841EB010C1CF5001F0CD80ED14FEA8B
:1037B000D17C15F5001F0CEB4C0C0CF1020C08BF72
:1037C0004CEBD37C04E04FF0080C01E04FEAD37CD3
:1037D0000CEB4C0526FA05F606F00706B6F1040CCC
:1037E00006D20EEB860CBDE870404CF0010C604731
:1037F000DFE80CF0090B02024FF000414FF000002F
:10380000A1F5002170BD19461046012851EB0104B5
:1038100018BFD4F5001484BF002001F0004170BD32
:103820000808A0F500114FEA3101704710B591EA80
:10383000030F48BF83F000433FF51AAE841A71EBC3
:10384000030C07D212198CF0004C43EB0C03001B45
:1038500061EB0C01DFF8A4E14FEA1154A4EB135C17
:103860001EEA430F18BF9EEA445F00F0B08023EACF
:103870006E03524221EA0451C3EB6E0338BF5B1E54
:10388000DCF1200E25D322FA0CFE10EB0E0043FAD9
:103890000CFE41EB0E01CCF1200E03FA0EFE10EBF4
:1038A0000E0051F10001CCF1200E29D412FA0EF2D3
:1038B00001EB0451BDE8104058BF7047401C1CBFCD
:1038C000B2F1004F704700280CBF491C20F00100E6
:1038D000704712EB020E43EB030218BF4FF0010ECC
:1038E0004EEA4202ACF1200CDCF11E0E54D943FA30
:1038F0000CFE10EB0E0051F1FF31CCF11E0ED5D5B0
:103900000EF1010E12FA0EFE404141EB010101EBF6
:10391000445C5FEA5C5C10D910EBDE7001EB045193
:1039200038BFBEF1004FBDE8104018BF70470028F7
:103930000CBF491C20F00100704730D24FEAD42C54
:1039400011F5001124F400641BD0B1FA81F20B3A96
:10395000A41AA41ED2F12003914030FA03F31943B4
:10396000904001EBCC71002C01EB0451BDE81040FC
:10397000A8BF704701F1C0414FF0000001F00041C5
:103980007047B0FA80F310FA03F100D110BDE41AC9
:10399000173C4805C90AE4E701EB045110BD491082
:1039A00001EB0451BDE810404FEA300002E04FF057
:1039B000000170474A0008BF0042F8D0B2F5001F6E
:1039C00028BF704701F000414FF0000070479EEAA9
:1039D000445F07D011EA5E0FBDE8104004BF00212C
:1039E00000207047BDE8104070B5FFF7CBFE00BF68
:1039F00040DFF63E83F00041104670470000E0FFD4
:103A00004FF04070E1EE100A704700002C3A0008B9
:103A1000000000202C060000C4010008AC3D000896
:103A20002C060020C40600002002000802160172C5
:103A3000F84333301C100C0603912C40C07803115E
:103A40002C043F0403212D7088FC0829261820FF30
:103A5000211E14F008F033E0184D211C031E113311
:103A60008870000C101E2123241927211010160E17
:103A700045E018040225071820403D020418E069BB
:103A80002C20180707174080F08040403F020201B9
:103A90000F01022842F01D0101011F04912B80B08B
:103AA00066B1191D2901913A30CE492C14601804D1
:103AB0003C6018061D1EE010080810721F0F102031
:103AC00020100FF05310F83620203F20203C7008C3
:103AD00008C21E3028242221441E30088888480845
:103AE0002E1820202011CC3BC0203227070424248C
:103AF0003F241AF8202308084B19212036E01088AB
:103B000088184B0F11101E380808C8382021523F62
:103B10001A702E29608F1C222121221C90111D3128
:103B2000222211901961CAC0C26A80C659081C407D
:103B3000201050170102040810204A4001114A04C5
:103B4000012119152A403219251B0402F21B704865
:103B5000D13AF0501A360F1EC030C828E870280835
:103B60000718272423140B6F2A387E280D203C23A6
:103B7000020227382008F888889F4B203FF01BC09E
:103B8000303F1B083830191019781B08F80F1940FE
:103B900039201B100F103E8888E8081010AC232035
:103BA0001810112A035E2940223829402C221E02B7
:103BB0004019A41809F808203F21010121252A08ED
:103BC00052298129424149112EC08080807F0E2FC9
:103BD000F888C0281808501C0126382F2940292FA2
:103BE00029801B20301012F81AF81413203F1902F4
:103BF00029204B30C0601A2074123F4BE010B06B8C
:103C00000F10B029D01AF0301980220179203F1806
:103C1000242438504FC04C888870C0140C30204B7E
:103C20007088C11738202121221C3A189F4A188217
:103C300039A049D0112A1F90121F240878881BC868
:103C400038151C07380E60191A1AF8201114033C95
:103C50000714073C03481408186880806818082077
:103C6000302C03032C30200838C82F5950298F29B5
:103C7000102F203826212020681145FE020202253F
:103C80007F4040401A0CE0611C0106380B191D42B0
:103C9000FE191D527F1A04120211045A80011930B4
:103CA000D91D391621180819242222223F20AB39A8
:103CB0000F115F3F112020110E21311A0E104B20E1
:103CC00011104B88F8102A10B359401A1F3F2B22AD
:103CD000130F16F0888888181A20D029D1497A2124
:103CE000176B94949493603960190F4C203F21F323
:103CF00054809898793059121AC02719D11930393F
:103D0000311F203F24022D30212A0812893069D723
:103D1000294B2903190BC96079A019BF2B201FDD7E
:103D2000390F9C80FFA1E0191229D03BA0FF0C396C
:103D300050194112208A01C01B3324012A190F3A5D
:103D4000E0413952290F392349603C103F202C298A
:103D5000053F010E3008060170291038080F300C9D
:103D6000030C300F2C49A14E312E0E31200C29624C
:103D70001D818E70183059D1215721302C222130CD
:103D800055807C0202443F404072FF39083C0202E9
:103D90007C8F5440403F00083406010102020404B5
:0C3DA0002D0102030404050006070809B9
:040000050800018965
:00000001FF
